:020000040800F2
:1000000000500020E1470008B1450008B94500084C
:10001000C1450008C9450008D1450008000000009E
:10002000000000000000000000000000D9450008AA
:10003000E545000800000000F1450008FD45000806
:1000400029480008294800082948000829480008CC
:1000500029480008294800082948000829480008BC
:1000600029480008294800082948000829480008AC
:10007000294800082948000829480008294800089C
:10008000294800082948000829480008294800088C
:10009000294800082948000829480008294800087C
:1000A0002948000829480008154600082948000882
:1000B000294800082948000829480008294800085C
:1000C000294800082948000829480008294800084C
:1000D000294800082946000829480008294800083E
:1000E00029480008294800082948000800000000A5
:1000F0000000000000000000000000000000000000
:0C01000000000000000000005FF808F1A3
:10010C0010B5054C237833B9044B13B10448AFF345
:10011C0000800123237010BD680000200000000047
:10012C005C57000808B5034B1BB103490348AFF3F8
:10013C00008008BD000000006C0000205C57000827
:10014C0080B400AF00BFBD4680BC704780B584B0A2
:10015C0000AF78607B68002B01D101232BE17B6819
:10016C0093F83D30DBB2002B06D17B68002283F87C
:10017C003C20786803F016FF7B68242283F83D202E
:10018C007B681B681A687B681B6822F001021A6086
:10019C007B681B681A687B681B6842F400421A6013
:1001AC007B681B681A687B681B6822F400421A6023
:1001BC0001F050FCF8607B685B68814A934207D879
:1001CC00FB68804A934294BF01230023DBB206E014
:1001DC00FB687D4A934294BF01230023DBB2002BC2
:1001EC0001D00123E7E0FB68784AA2FB03239B0CB8
:1001FC00BB607B681B685B6823F03F017B681B68F6
:10020C00BA680A435A607B681B681B6A23F03F017B
:10021C007B685B686A4A934202D8BB68013309E089
:10022C00BB684FF4967202FB03F3694AA2FB0323EB
:10023C009B0901337A6812680B4313627B681B6855
:10024C00DB6923F44F4222F0FF027B685B685C4958
:10025C008B4219D8FB68591E7B685B685B00B1FB4D
:10026C00F3F3591C40F6FC730B40002B0AD0FB68CF
:10027C00591E7B685B685B00B1FBF3F30133C3F37E
:10028C000B0351E004234FE07B689B68002B11D1DA
:10029C00FB68581E7B6859680B465B000B44B0FB2F
:1002AC00F3F30133C3F30B03002B0CBF0123002327
:1002BC00DBB212E0FB68581E7B6859680B469B004A
:1002CC000B4499000B44B0FBF3F30133C3F30B0362
:1002DC00002B0CBF01230023DBB2002B01D0012328
:1002EC0022E07B689B68002B0ED1FB68581E7B6854
:1002FC0059680B465B000B44B0FBF3F30133C3F3BB
:10030C000B0343F400430FE0FB68581E7B685968ED
:10031C000B469B000B4499000B44B0FBF3F30133E9
:10032C00C3F30B0343F44043796809681343CB616F
:10033C007B681B681B6823F0C0017B68DA697B68EB
:10034C001B6A1A437B681B680A431A607B681B682C
:10035C009B6823F4034323F0FF037A6811697A68DE
:10036C00D26811437A6812680B4393607B681B68F0
:10037C00DB6823F0FF017B685A697B689B691A4331
:10038C007B681B680A43DA607B681B681A687B68A9
:10039C001B6842F001021A607B6800221A647B68B9
:1003AC00202283F83D207B6800221A637B680022A0
:1003BC0083F83E20002318461037BD4680BD00BF91
:1003CC00A08601007F841E00FF083D0083DE1B43D6
:1003DC00D34D621080B588B002AFF8607A601A46CF
:1003EC000B467B8113463B8100F03CFF7861FB6838
:1003FC0093F83D30DBB2202B40F0E0807B6900931A
:10040C00192301227049F86800F09EFC0346002B6A
:10041C0001D00223D3E0FB6893F83C30012B01D1CF
:10042C000223CCE0FB68012283F83C20FB681B68AC
:10043C001B6803F00103012B07D0FB681B681A68CB
:10044C00FB681B6842F001021A60FB681B681A68A3
:10045C00FB681B6822F400621A60FB68212283F897
:10046C003D20FB68102283F83E20FB6800221A64B2
:10047C00FB687A685A62FB683A895A85FB685B8D1F
:10048C009AB2FB681A85FB68504ADA6279897B69F3
:10049C003A6AF86800F008FB0346002B01D00123F0
:1004AC008DE000233B61FB681B685B693B61FB686B
:1004BC001B689B693B613B6966E07A69396AF8683D
:1004CC0000F05CFD0346002B0DD0FB681B6C042B6D
:1004DC0007D1FB681B681A68FB681B6842F4007242
:1004EC001A6001236BE0FB685B6A1A78FB681B6877
:1004FC001A61FB685B6A5A1CFB685A62FB685B8D6D
:10050C009BB2013B9AB2FB685A85FB681B8D013B81
:10051C009AB2FB681A85FB681B685B6903F00403DD
:10052C00042B1BD1FB681B8D002B17D0FB685B6A5F
:10053C001A78FB681B681A61FB685B6A5A1CFB68BB
:10054C005A62FB685B8D9BB2013B9AB2FB685A8581
:10055C00FB681B8D013B9AB2FB681A857A69396A74
:10056C00F86800F053FD0346002B0DD0FB681B6CA4
:10057C00042B07D1FB681B681A68FB681B6842F4E4
:10058C0000721A6001231AE0FB681B8D002B94D1BA
:10059C00FB681B681A68FB681B6842F400721A60DF
:1005AC00FB68202283F83D20FB68002283F83E2064
:1005BC00FB68002283F83C20002300E0022318464D
:1005CC001837BD4680BD00BF020010000000FFFFC1
:1005DC0080B58CB002AFF8607A601A460B467B810E
:1005EC0013463B8100233B6200F03CFE7862FB68C3
:1005FC0093F83D30DBB2202B40F04B827B6A0093AA
:10060C00192301227F49F86800F09EFB0346002B5A
:10061C0001D002233EE2FB6893F83C30012B01D160
:10062C00022337E2FB68012283F83C20FB681B683D
:10063C001B6803F00103012B07D0FB681B681A68C9
:10064C00FB681B6842F001021A60FB681B681A68A1
:10065C00FB681B6822F400621A60FB68222283F894
:10066C003D20FB68102283F83E20FB6800221A64B0
:10067C00FB687A685A62FB683A895A85FB685B8D1D
:10068C009AB2FB681A85FB685F4ADA6279897B6AE1
:10069C003A6BF86800F08AFA0346002B01D001236C
:1006AC00F8E1FB681B8D002B13D10023FB61FB6869
:1006BC001B685B69FB61FB681B689B69FB61FB69E1
:1006CC00FB681B681A68FB681B6842F400721A60AE
:1006DC00CCE1FB681B8D012B1ED1FB681B681A68D3
:1006EC00FB681B6822F480621A6072B600BF00239C
:1006FC00BB61FB681B685B69BB61FB681B689B6922
:10070C00BB61BB69FB681B681A68FB681B6842F419
:10071C0000721A6062B635E0FB681B8D022B1ED18D
:10072C00FB681B681A68FB681B6842F400621A605D
:10073C0072B600BF00237B61FB681B685B697B6141
:10074C00FB681B689B697B617B69FB681B681A688B
:10075C00FB681B6822F480621A6062B612E0FB68C8
:10076C001B681A68FB681B6842F480621A600023DD
:10077C003B61FB681B685B693B61FB681B689B69A1
:10078C003B613B6972E1FB681B8D032B00F21F81FF
:10079C00FB681B8D012B23D17A6A396BF86800F04A
:1007AC007DFC0346002B01D0012373E1FB681B6821
:1007BC001A69FB685B6AD2B21A70FB685B6A5A1CD6
:1007CC00FB685A62FB681B8D013B9AB2FB681A8569
:1007DC00FB685B8D9BB2013B9AB2FB685A8545E185
:1007EC00FB681B8D022B52D17B6A00933B6B002262
:1007FC000649F86800F0A8FA0346002B08D001233C
:10080C0048E100BF020010000000FFFF04000100DF
:10081C0072B600BFFB681B681A68FB681B6842F461
:10082C0000721A60FB681B681A69FB685B6AD2B2BB
:10083C001A70FB685B6A5A1CFB685A62FB681B8D5A
:10084C00013B9AB2FB681A85FB685B8D9BB2013B3E
:10085C009AB2FB685A8562B600BFFB681B681A69BE
:10086C00FB685B6AD2B21A70FB685B6A5A1CFB6845
:10087C005A62FB681B8D013B9AB2FB681A85FB68B8
:10088C005B8D9BB2013B9AB2FB685A85EEE07B6AAA
:10089C0000933B6B00228149F86800F055FA03463F
:1008AC00002B01D00123F5E0FB681B681A68FB687C
:1008BC001B6822F480621A6072B600BFFB681B686A
:1008CC001A69FB685B6AD2B21A70FB685B6A5A1CC5
:1008DC00FB685A62FB681B8D013B9AB2FB681A8558
:1008EC00FB685B8D9BB2013B9AB2FB685A856C4BE3
:1008FC001B68DB086B4AA2FB03231A0A13469B00F6
:10090C001344DA00D31A3B623B6A013B3B623B6AFD
:10091C00002B18D1FB6800221A63FB68202283F895
:10092C003D20FB68002283F83E20FB681B6C43F0E3
:10093C002002FB681A6462B600BFFB68002283F8D1
:10094C003C200123A6E0FB681B685B6903F00403F1
:10095C00042BD9D1FB681B681A68FB681B6842F42E
:10096C0000721A60FB681B681A69FB685B6AD2B27A
:10097C001A70FB685B6A5A1CFB685A62FB681B8D19
:10098C00013B9AB2FB681A85FB685B8D9BB2013BFD
:10099C009AB2FB685A8562B600BFFB681B681A697D
:1009AC00FB685B6AD2B21A70FB685B6A5A1CFB6804
:1009BC005A62FB681B8D013B9AB2FB681A85FB6877
:1009CC005B8D9BB2013B9AB2FB685A854EE07A6A0A
:1009DC00396BF86800F062FB0346002B01D0012351
:1009EC0058E0FB681B681A69FB685B6AD2B21A7024
:1009FC00FB685B6A5A1CFB685A62FB681B8D013BE7
:100A0C009AB2FB681A85FB685B8D9BB2013B9AB26C
:100A1C00FB685A85FB681B685B6903F00403042BB5
:100A2C0024D1FB681B8D032B07D1FB681B681A684C
:100A3C00FB681B6822F480621A60FB681B681A69E9
:100A4C00FB685B6AD2B21A70FB685B6A5A1CFB6863
:100A5C005A62FB681B8D013B9AB2FB681A85FB68D6
:100A6C005B8D9BB2013B9AB2FB685A85FB681B8D70
:100A7C00002B7FF488AEFB68202283F83D20FB68B6
:100A8C00002283F83E20FB68002283F83C200023E0
:100A9C0000E0022318462837BD4680BD0400010043
:100AAC000000002089B5F81480B588B002AFF8605A
:100ABC007A603B600B467B81FB68DB6A7B617B6900
:100ACC00082B06D07B69012B03D07B6913F5803F83
:100ADC0008D1FB681B681A68FB681B6842F48072BB
:100AEC001A600BE0FB681B6B122B07D1FB681B68B1
:100AFC001A68FB681B6842F480721A603B680093AA
:100B0C007B6800224FF00111F86800F01DF90346D4
:100B1C00002B0DD0FB681B681B6803F48073B3F5C6
:100B2C00807F03D1FB684FF400721A64032335E015
:100B3C00FB681B69B3F5804F08D17B89DBB21A4681
:100B4C00FB681B6802F0FE021A611BE07B89DB115B
:100B5C00DBB203F00603DBB263F00F03DAB2FB681F
:100B6C001B681A613B687A680E49F86800F066F9F0
:100B7C000346002B01D0012310E07B89DAB2FB681D
:100B8C001B681A613B687A680749F86800F056F9E7
:100B9C000346002B01D0012300E000231846183730
:100BAC00BD4680BD080001000200010080B588B080
:100BBC0002AFF8607A603B600B467B81FB68DB6AB6
:100BCC007B61FB681B681A68FB681B6842F48062D7
:100BDC001A607B69082B06D07B69012B03D07B69DB
:100BEC0013F5803F08D1FB681B681A68FB681B680B
:100BFC0042F480721A600BE0FB681B6B112B07D15F
:100C0C00FB681B681A68FB681B6842F480721A60E8
:100C1C003B6800937B6800224FF00111F86800F0EC
:100C2C0093F80346002B0DD0FB681B681B6803F47C
:100C3C008073B3F5807F03D1FB684FF400721A64A4
:100C4C00032379E0FB681B69B3F5804F08D17B89DE
:100C5C00DBB243F00103DAB2FB681B681A615FE098
:100C6C007B89DB11DBB203F00603DBB263F00F030D
:100C7C00DAB2FB681B681A613B687A683049F8681D
:100C8C0000F0DCF80346002B01D0012354E07B89F3
:100C9C00DAB2FB681B681A613B687A682949F86804
:100CAC0000F0CCF80346002B01D0012344E00023D4
:100CBC003B61FB681B685B693B61FB681B689B695C
:100CCC003B613B69FB681B681A68FB681B6842F454
:100CDC0080721A603B6800937B6800224FF0011110
:100CEC00F86800F031F80346002B0DD0FB681B6848
:100CFC001B6803F48073B3F5807F03D1FB684FF45A
:100D0C0000721A64032317E07B89DB11DBB203F05A
:100D1C000603DBB263F00E03DAB2FB681B681A61E0
:100D2C003B687A680749F86800F088F80346002B9E
:100D3C0001D0012300E0002318461837BD4680BDC2
:100D4C00080001000200010080B584B000AFF8601B
:100D5C00B9603B601346FB7148E03B68B3F1FF3F61
:100D6C0044D000F07FFA0246BB69D31A3A689A4223
:100D7C0002D33B68002B39D1BB681B0CDBB2012BB7
:100D8C000DD1FB681B685B69DA43BB6813409BB2EF
:100D9C00002B0CBF01230023DBB21A460CE0FB68CE
:100DAC001B689B69DA43BB6813409BB2002B0CBFDA
:100DBC0001230023DBB21A46FB799A4216D1FB6859
:100DCC0000221A63FB68202283F83D20FB68002276
:100DDC0083F83E20FB681B6C43F02002FB681A640E
:100DEC00FB68002283F83C20012323E0BB681B0C2A
:100DFC00DBB2012B0DD1FB681B685B69DA43BB6866
:100E0C0013409BB2002B0CBF01230023DBB21A460C
:100E1C000CE0FB681B689B69DA43BB6813409BB210
:100E2C00002B0CBF01230023DBB21A46FB799A423C
:100E3C0093D0002318461037BD4680BD80B584B0D2
:100E4C0000AFF860B9607A603B6071E0FB681B68CA
:100E5C005B6903F48063B3F5806F23D1FB681B6877
:100E6C001A68FB681B6842F400721A60FB681B6806
:100E7C006FF480625A61FB6800221A63FB682022BF
:100E8C0083F83D20FB68002283F83E20FB681B6C36
:100E9C0043F00402FB681A64FB68002283F83C20D0
:100EAC00012367E07B68B3F1FF3F41D000F0DAF932
:100EBC0002463B68D31A7A689A4202D37B68002BAD
:100ECC0036D1BB681B0CDBB2012B0CD1FB681B6849
:100EDC005B69DA43BB6813409BB2002B14BF012340
:100EEC000023DBB20BE0FB681B689B69DA43BB6831
:100EFC0013409BB2002B14BF01230023DBB2002B49
:100F0C0016D0FB6800221A63FB68202283F83D2070
:100F1C00FB68002283F83E20FB681B6C43F0200228
:100F2C00FB681A64FB68002283F83C20012321E053
:100F3C00BB681B0CDBB2012B0CD1FB681B685B691B
:100F4C00DA43BB6813409BB2002B14BF0123002370
:100F5C00DBB20BE0FB681B689B69DA43BB68134090
:100F6C009BB2002B14BF01230023DBB2002B7FF4B8
:100F7C006DAF002318461037BD4680BD80B584B0D8
:100F8C0000AFF860B9607A6034E0F86800F0E3F81C
:100F9C000346002B01D0012334E0BB68B3F1FF3FC3
:100FAC0028D000F05FF902467B68D31ABA689A42DF
:100FBC0002D3BB68002B1DD1FB681B685B6903F077
:100FCC008003802B16D0FB6800221A63FB6820225A
:100FDC0083F83D20FB68002283F83E20FB681B6CE5
:100FEC0043F02002FB681A64FB68002283F83C2063
:100FFC00012307E0FB681B685B6903F08003802B0F
:10100C00C3D1002318461037BD4680BD80B584B0CF
:10101C0000AFF860B9607A6034E0F86800F09BF8D3
:10102C000346002B01D0012334E0BB68B3F1FF3F32
:10103C0028D000F017F902467B68D31ABA689A4296
:10104C0002D3BB68002B1DD1FB681B685B6903F0E6
:10105C000403042B16D0FB6800221A63FB682022C1
:10106C0083F83D20FB68002283F83E20FB681B6C54
:10107C0043F02002FB681A64FB68002283F83C20D2
:10108C00012307E0FB681B685B6903F00403042B76
:10109C00C3D1002318461037BD4680BD80B584B03F
:1010AC0000AFF860B9607A6049E0FB681B685B6967
:1010BC0003F01003102B19D1FB681B686FF01002A2
:1010CC005A61FB6800221A63FB68202283F83D20DA
:1010DC00FB68002283F83E20FB681A6CFB681A64DC
:1010EC00FB68002283F83C20012330E000F0BAF8C2
:1010FC0002467B68D31ABA689A4202D3BB68002BAB
:10110C001DD1FB681B685B6903F04003402B16D0B4
:10111C00FB6800221A63FB68202283F83D20FB68E1
:10112C00002283F83E20FB681B6C43F02002FB6816
:10113C001A64FB68002283F83C20012307E0FB685B
:10114C001B685B6903F04003402BAED100231846AB
:10115C001037BD4680BD80B483B000AF78607B682B
:10116C001B685B6903F48063B3F5806F1BD17B68EC
:10117C001B686FF480625A617B6800221A637B687B
:10118C00202283F83D207B68002283F83E207B6878
:10119C001B6C43F004027B681A647B68002283F8A2
:1011AC003C20012300E0002318460C37BD4680BCD0
:1011BC007047000080B500AF084B1B68074A43F02E
:1011CC0010031360032000F0A7FF0F2000F008F8B5
:1011DC0003F02EFA0023184680BD00BF0020024009
:1011EC0080B582B000AF7860124B1A68124B1B7836
:1011FC0019464FF47A73B3FBF1F3B2FBF3F31846D1
:10120C0000F0BFFF0346002B01D001230EE07B68EA
:10121C000F2B0AD8002279684FF0FF3000F087FFBF
:10122C00064A7B681360002300E001231846083748
:10123C00BD4680BD000000200800002004000020F6
:10124C0080B400AF054B1B781A46054B1B68134442
:10125C00034A136000BFBD4680BC704708000020E5
:10126C008400002080B400AF024B1B681846BD46BA
:10127C0080BC70478400002080B584B000AF7860DB
:10128C00FFF7F0FFB8607B68FB60FB68B3F1FF3FD2
:10129C0005D00A4B1B781A46FB681344FB6000BF51
:1012AC00FFF7E0FF0246BB68D31AFA689A42F7D8F8
:1012BC0000BF00BF1037BD4680BD00BF0800002036
:1012CC0080B586B000AF78607B68002B01D101231C
:1012DC0072E27B681B6803F00103002B00F087802F
:1012EC00924B5B6803F00C03042B0CD08F4B5B68A8
:1012FC0003F00C03082B12D18C4B5B6803F4803386
:10130C00B3F5803F0BD1894B1B6803F40033002BE2
:10131C006CD07B685B68002B68D101234CE27B6846
:10132C005B68B3F5803F06D1804B1B687F4A43F462
:10133C00803313602EE07B685B68002B0CD17B4BF9
:10134C001B687A4A23F480331360784B1B68774A06
:10135C0023F4802313601DE07B685B68B3F5A02F3A
:10136C000CD1724B1B68714A43F4802313606F4B92
:10137C001B686E4A43F4803313600BE06B4B1B68A5
:10138C006A4A23F480331360684B1B68674A23F462
:10139C00802313607B685B68002B13D0FFF762FF20
:1013AC00386108E0FFF75EFF02463B69D31A642BF5
:1013BC0001D9032300E25D4B1B6803F40033002BBF
:1013CC00F0D014E0FFF74EFF386108E0FFF74AFF5A
:1013DC0002463B69D31A642B01D90323ECE1534B2E
:1013EC001B6803F40033002BF0D100E000BF7B68D6
:1013FC001B6803F00203002B63D04C4B5B6803F0BB
:10140C000C03002B0BD0494B5B6803F00C03082B2F
:10141C001CD1464B5B6803F48033002B16D1434B35
:10142C001B6803F00203002B05D07B681B69012BA2
:10143C0001D00123C0E13D4B1B6823F0F8027B680F
:10144C005B69DB00394913430B603AE07B681B692D
:10145C00002B20D0364B01221A60FFF703FF3861B6
:10146C0008E0FFF7FFFE02463B69D31A022B01D9B5
:10147C000323A1E12D4B1B6803F00203002BF0D0DA
:10148C002A4B1B6823F0F8027B685B69DB00274959
:10149C0013430B6015E0264B00221A60FFF7E2FEA7
:1014AC00386108E0FFF7DEFE02463B69D31A022BD7
:1014BC0001D9032380E11D4B1B6803F00203002BB1
:1014CC00F0D17B681B6803F00803002B3AD07B68D3
:1014DC009B69002B19D0174B01221A60FFF7C2FE33
:1014EC00386108E0FFF7BEFE02463B69D31A022BB7
:1014FC0001D9032360E10D4B5B6A03F00203002B5F
:10150C00F0D0012000F0CEFA1CE00A4B00221A6049
:10151C00FFF7A8FE38610FE0FFF7A4FE02463B6917
:10152C00D31A022B08D9032346E100BF0010024056
:10153C000000424280044242924B5B6A03F0020379
:10154C00002BE9D17B681B6803F00403002B00F02F
:10155C00A6800023FB758B4BDB6903F08053002BBB
:10156C000DD1884BDB69874A43F08053D361854B9F
:10157C00DB6903F08053BB60BB680123FB75824BB6
:10158C001B6803F48073002B18D17F4B1B687E4AB9
:10159C0043F480731360FFF765FE386108E0FFF7D2
:1015AC0061FE02463B69D31A642B01D9032303E184
:1015BC00754B1B6803F48073002BF0D07B68DB68E1
:1015CC00012B06D16F4B1B6A6E4A43F00103136269
:1015DC002DE07B68DB68002B0CD16A4B1B6A694AD7
:1015EC0023F001031362674B1B6A664A23F0040362
:1015FC0013621CE07B68DB68052B0CD1614B1B6A0A
:10160C00604A43F0040313625E4B1B6A5D4A43F06D
:10161C00010313620BE05B4B1B6A5A4A23F0010374
:10162C001362584B1B6A574A23F0040313627B68FE
:10163C00DB68002B15D0FFF715FE38610AE0FFF7C9
:10164C0011FE02463B69D31A41F28832934201D90A
:10165C000323B1E04B4B1B6A03F00203002BEED0CB
:10166C0014E0FFF7FFFD38610AE0FFF7FBFD0246CF
:10167C003B69D31A41F28832934201D903239BE090
:10168C00404B1B6A03F00203002BEED1FB7D012BB8
:10169C0005D13C4BDB693B4A23F08053D3617B681B
:1016AC00DB69002B00F08780364B5B6803F00C0382
:1016BC00082B61D07B68DB69022B46D1334B0022AF
:1016CC001A60FFF7CFFD386108E0FFF7CBFD02464B
:1016DC003B69D31A022B01D903236DE0294B1B68FC
:1016EC0003F00073002BF0D17B681B6AB3F5803FCD
:1016FC0008D1244B5B6823F400327B689B6821493A
:10170C0013434B601F4B5B6823F474127B68196A9C
:10171C007B685B6A0B431B4913434B601B4B0122D9
:10172C001A60FFF79FFD386108E0FFF79BFD02464A
:10173C003B69D31A022B01D903233DE0114B1B68E3
:10174C0003F00073002BF0D035E0104B00221A6030
:10175C00FFF788FD386108E0FFF784FD02463B691E
:10176C00D31A022B01D9032326E0064B1B6803F086
:10177C000073002BF0D11EE07B68DB69012B07D1D5
:10178C00012319E00010024000700040600042424A
:10179C000B4B5B68FB60FB6803F480327B681B6A55
:1017AC009A4206D1FB6803F470127B685B6A9A421A
:1017BC0001D0012300E0002318461837BD4680BD38
:1017CC000010024080B584B000AF786039607B684F
:1017DC00002B01D10123D0E06A4B1B6803F00703F7
:1017EC003A689A4210D9674B1B6823F00702654987
:1017FC003B6813430B60634B1B6803F007033A68A9
:10180C009A4201D00123B8E07B681B6803F0020305
:10181C00002B20D07B681B6803F00403002B05D041
:10182C00594B5B68584A43F4E06353607B681B6810
:10183C0003F00803002B05D0534B5B68524A43F46A
:10184C0060535360504B5B6823F0F0027B689B68DD
:10185C004D4913434B607B681B6803F00103002B5D
:10186C0040D07B685B68012B07D1474B1B6803F4A6
:10187C000033002B15D101237FE07B685B68022BC2
:10188C0007D1414B1B6803F00073002B09D10123D6
:10189C0073E03D4B1B6803F00203002B01D10123C5
:1018AC006BE0394B5B6823F003027B685B6836495D
:1018BC0013434B60FFF7D6FCF8600AE0FFF7D2FC4D
:1018CC000246FB68D31A41F28832934201D90323B2
:1018DC0053E02D4B5B6803F00C027B685B689B004C
:1018EC009A42EBD1274B1B6803F007033A689A42E4
:1018FC0010D2244B1B6823F0070222493B68134388
:10190C000B60204B1B6803F007033A689A4201D026
:10191C00012332E07B681B6803F00403002B08D022
:10192C00194B5B6823F4E0627B68DB681649134350
:10193C004B607B681B6803F00803002B09D0124B2B
:10194C005B6823F460527B681B69DB000E49134310
:10195C004B6000F021F802460B4B5B681B0903F04F
:10196C000F030A49CB5C22FA03F3094A1360094BB3
:10197C001B681846FFF734FC002318461037BD4689
:10198C0080BD00BF0020024000100240205800081B
:10199C00000000200400002080B487B000AF0023BA
:1019AC00FB600023BB6000237B6100237B60002372
:1019BC003B611E4B5B68FB60FB6803F00C03042B64
:1019CC0002D0082B03D027E0194B3B6127E0FB68C2
:1019DC009B0C03F00F03174AD35C7B60FB6803F48A
:1019EC008033002B10D0114B5B685B0C03F00103B0
:1019FC00114AD35CBB607B680D4A03FB02F2BB68E7
:101A0C00B2FBF3F37B6104E07B680C4A02FB03F34B
:101A1C007B617B693B6102E0054B3B6100BF3B692D
:101A2C0018461C37BD4680BC704700BF00100240F2
:101A3C0000127A00385800084858000800093D0088
:101A4C0080B400AF024B1B681846BD4680BC704783
:101A5C000000002080B500AFFFF7F2FF0246054BF7
:101A6C005B681B0A03F007030349CB5C22FA03F300
:101A7C00184680BD001002403058000880B500AFF9
:101A8C00FFF7DEFF0246054B5B68DB0A03F007033A
:101A9C000349CB5C22FA03F3184680BD00100240C8
:101AAC003058000880B485B000AF78600A4B1B68D2
:101ABC000A4AA2FB03235B0A7A6802FB03F3FB606E
:101ACC0000BFFB685A1EFA60002BF9D100BF00BFA3
:101ADC001437BD4680BC704700000020D34D621007
:101AEC0080B48BB000AF7860396000237B62002338
:101AFC003B6269E101227B6A02FA03F3FB613B68FA
:101B0C001B68FA691340BB61BA69FB699A4240F0E1
:101B1C0058813B685B689A4A93425ED0984A9342DC
:101B2C0075D8984A934258D0964A93426FD8964AA1
:101B3C00934252D0944A934269D8944A93424CD0DF
:101B4C00924A934263D8924A934246D0904A934227
:101B5C005DD8122B2AD8122B59D801A252F823F097
:101B6C00E71B0008C11B0008D31B0008151C00084C
:101B7C001B1C00081B1C00081B1C00081B1C00085D
:101B8C001B1C00081B1C00081B1C00081B1C00084D
:101B9C001B1C00081B1C00081B1C00081B1C00083D
:101BAC001B1C0008C91B0008DD1B0008794A934266
:101BBC0013D02CE03B68DB683B6229E03B68DB68B8
:101BCC0004333B6224E03B68DB6808333B621FE074
:101BDC003B68DB680C333B621AE03B689B68002B6C
:101BEC0002D104233B6213E03B689B68012B05D1B7
:101BFC0008233B627B68FA691A6109E008233B629F
:101C0C007B68FA695A6103E000233B6200E000BF85
:101C1C00BB69FF2B01D87B6801E07B6804337B61D7
:101C2C00BB69FF2B02D87B6A9B0002E07B6A083BF6
:101C3C009B003B617B691A680F213B6901FA03F336
:101C4C00DB431A40396A3B6901FA03F31A437B6997
:101C5C001A603B685B6803F08053002B00F0B18086
:101C6C004D4B9B694C4A43F0010393614A4B9B6972
:101C7C0003F00103BB60BB68484A7B6A9B080233D4
:101C8C0052F82330FB607B6A03F003039B000F22A6
:101C9C0002FA03F3DB43FA681340FB607B68404AAB
:101CAC00934213D07B683F4A93420DD07B683E4AE7
:101CBC00934207D07B683D4A934201D1032306E04F
:101CCC00042304E0022302E0012300E000237A6AEB
:101CDC0002F0030292009340FA681343FB602F4911
:101CEC007B6A9B080233FA6841F823203B685B68E7
:101CFC0003F48013002B06D02D4B9A682C49BB693A
:101D0C0013438B6006E02A4B9A68BB69DB43284976
:101D1C0013408B603B685B6803F40013002B06D008
:101D2C00234BDA682249BB691343CB6006E0204B96
:101D3C00DA68BB69DB431E491340CB603B685B68C8
:101D4C0003F40033002B06D0194B5A681849BB69B1
:101D5C0013434B6006E0164B5A68BB69DB431449CE
:101D6C0013404B603B685B6803F48033002B21D03D
:101D7C000F4B1A680E49BB6913430B6021E000BF7F
:101D8C000000321000003110000022100000211061
:101D9C000000121000001110001002400000014061
:101DAC0000080140000C01400010014000140140EB
:101DBC00000401400B4B1A68BB69DB430949134013
:101DCC000B607B6A01337B623B681A687B6A22FA80
:101DDC0003F3002B7FF48EAE00BF00BF2C37BD4643
:101DEC0080BC70470004014080B483B000AF7860C1
:101DFC000B467B8013467B707B78002B03D07A8854
:101E0C007B681A6103E07B881A047B681A6100BF47
:101E1C000C37BD4680BC704780B485B000AF78608D
:101E2C000023FB737B6893F82130DBB2022B08D0C4
:101E3C007B6804229A637B68002283F820200123AC
:101E4C0020E07B681B681A687B681B6822F00E0216
:101E5C001A607B681B681A687B681B6822F0010299
:101E6C001A607B681A6C7B68DB6B012101FA02F249
:101E7C005A607B68012283F821207B68002283F85A
:101E8C002020FB7B18461437BD4680BC70470000F1
:101E9C0080B584B000AF78600023FB737B6893F847
:101EAC002130DBB2022B05D07B6804229A6301231C
:101EBC00FB7351E07B681B681A687B681B6822F017
:101ECC000E021A607B681B681A687B681B6822F01C
:101EDC0001021A607B681B68224A934229D07B68F6
:101EEC001B68214A934222D07B681B681F4A93428D
:101EFC001AD07B681B681E4A934212D07B681B6801
:101F0C001C4A93420AD07B681B681B4A934202D13D
:101F1C004FF480130EE04FF080730BE04FF48033DE
:101F2C0008E04FF4805305E04FF4807302E0102377
:101F3C0000E00123114A53607B68012283F82120C1
:101F4C007B68002283F820207B685B6B002B03D01E
:101F5C007B685B6B78689847FB7B18461037BD46EF
:101F6C0080BD00BF080002401C000240300002404F
:101F7C0044000240580002406C0002400000024045
:101F8C0080B485B000AF78607B6803F00703FB601A
:101F9C000C4BDB68BB60BA684FF6FF031340BB60A9
:101FAC00FB681A02BB68134343F0BF6343F400336E
:101FBC00BB60044ABB68D36000BF1437BD4680BC0D
:101FCC00704700BF00ED00E080B400AF044BDB684D
:101FDC001B0A03F007031846BD4680BC704700BFC0
:101FEC0000ED00E080B483B000AF0346FB7197F9BD
:101FFC000730002B0BDBFB7903F01F02064997F926
:10200C0007305B09012000FA02F241F8232000BFDF
:10201C000C37BD4680BC704700E100E080B483B053
:10202C0000AF03463960FB7197F90730002B0ADBD0
:10203C003B68DAB20C4997F907301201D2B20B4463
:10204C0083F800230AE03B68DAB20849FB7903F015
:10205C000F03043B1201D2B20B441A7600BF0C37AB
:10206C00BD4680BC704700BF00E100E000ED00E021
:10207C0080B489B000AFF860B9607A60FB6803F097
:10208C000703FB61FB69C3F10703042B28BF04237F
:10209C00BB61FB690433062B02D9FB69033B00E0EF
:1020AC0000237B614FF0FF32BB6902FA03F3DA4382
:1020BC00BB681A407B699A404FF0FF317B6901FA8B
:1020CC0003F3D9437B680B40134318462437BD46B2
:1020DC0080BC704780B582B000AF78607B68013BF4
:1020EC00B3F1807F01D301230FE00A4A7B68013BE7
:1020FC0053600F214FF0FF30FFF790FF054B00228C
:10210C009A60044B07221A60002318460837BD4614
:10211C0080BD00BF10E000E080B582B000AF7860F9
:10212C007868FFF72DFF00BF0837BD4680BD80B52E
:10213C0086B000AF0346B9607A60FB7300237B6105
:10214C00FFF742FF78617A68B9687869FFF790FF0A
:10215C00024697F90F3011461846FFF75FFF00BF94
:10216C001837BD4680BD80B582B000AF0346FB7109
:10217C0097F907301846FFF735FF00BF0837BD4603
:10218C0080BD80B582B000AF78607868FFF7A2FFA1
:10219C00034618460837BD4680BD80B582B000AFF7
:1021AC0078607B68002B01D1012376E07B685B6A49
:1021BC00002B08D17B685B68B3F5827F09D07B6804
:1021CC000022DA6105E07B6800221A617B6800223C
:1021DC005A617B6800229A627B6893F85130DBB2BB
:1021EC00002B06D17B68002283F85020786801F020
:1021FC00ADFF7B68022283F851207B681B681A684C
:10220C007B681B6822F040021A607B685B6803F4F1
:10221C0082727B689B6803F404431A437B68DB6817
:10222C0003F400631A437B681B6903F002031A432F
:10223C007B685B6903F001031A437B689B6903F4B9
:10224C0000731A437B68DB6903F038031A437B681D
:10225C001B6A03F0800342EA03017B689B6A03F468
:10226C0000527B681B680A431A607B689B691A0CD6
:10227C007B681B6802F004025A607B681B68DA6991
:10228C007B681B6822F40062DA617B6800225A6565
:10229C007B68012283F85120002318460837BD467D
:1022AC0080BD80B58AB000AFF860B9607A607B8081
:1022BC0001237B62FEF7D6FF3862FB6893F851303E
:1022CC00FB77FB685B68BB617B88FB82FB7F012B28
:1022DC000CD0BB69B3F5827F06D1FB689B68002BE1
:1022EC0002D1FB7F042B01D002237FE1BB68002BC2
:1022FC0005D07B68002B02D07B88002B01D10123F9
:10230C0074E1FB6893F85030012B01D102236DE18D
:10231C00FB68012283F85020FB6893F85130DBB244
:10232C00042B03D0FB68052283F85120FB680022A4
:10233C005A65FB687A689A63FB687A88DA87FB6867
:10234C007A889A87FB68BA681A63FB687A88DA8697
:10235C00FB687A889A86FB6800221A64FB68002264
:10236C005A64FB681B681B6803F04003402B07D0C2
:10237C00FB681B681A68FB681B6842F040021A6015
:10238C00FB68DB68B3F5006F7ED1FB685B68002BE4
:10239C0002D0FB8A012B6CD1FB681B6B1A88FB6883
:1023AC001B68DA60FB681B6B9A1CFB681A63FB6882
:1023BC00DB8E9BB2013B9AB2FB68DA8659E0FB6874
:1023CC001B689B6803F00203022B1BD1FB68DB8E9E
:1023DC009BB2002B16D07B6A012B13D1FB681B6BB5
:1023EC001A88FB681B68DA60FB681B6B9A1CFB681D
:1023FC001A63FB68DB8E9BB2013B9AB2FB68DA86F0
:10240C0000237B62FB681B689B6803F00103012BB4
:10241C0019D1FB68DB8F9BB2002B14D0FB681B68B7
:10242C00DA68FB689B6B92B21A80FB689B6B9A1CF8
:10243C00FB689A63FB68DB8F9BB2013B9AB2FB682B
:10244C00DA8701237B62FEF70DFF02463B6AD31A43
:10245C003A6B9A420DD83B6BB3F1FF3F09D0FB6846
:10246C00012283F85120FB68002283F850200323BB
:10247C00BCE0FB68DB8E9BB2002BA0D1FB68DB8F32
:10248C009BB2002B9BD182E0FB685B68002B02D0D7
:10249C00FB8A012B71D1FB681A6BFB681B680C3330
:1024AC0012781A70FB681B6B5A1CFB681A63FB686A
:1024BC00DB8E9BB2013B9AB2FB68DA865DE0FB686F
:1024CC001B689B6803F00203022B1CD1FB68DB8E9C
:1024DC009BB2002B17D07B6A012B14D1FB681A6BB3
:1024EC00FB681B680C3312781A70FB681B6B5A1C48
:1024FC00FB681A63FB68DB8E9BB2013B9AB2FB68EC
:10250C00DA8600237B62FB681B689B6803F001037F
:10251C00012B19D1FB68DB8F9BB2002B14D0FB680D
:10252C001B68DA68FB689B6BD2B21A70FB689B6BFA
:10253C005A1CFB689A63FB68DB8F9BB2013B9AB217
:10254C00FB68DA8701237B62FEF78CFE02463B6A4E
:10255C00D31A3A6B9A4203D83B6BB3F1FF3F02D1CB
:10256C003B6B002B09D1FB68012283F85120FB68DF
:10257C00002283F85020032338E0FB68DB8E9BB2EB
:10258C00002B9CD1FB68DB8F9BB2002B97D13A6A56
:10259C00396BF86800F0C4F80346002B08D0FB68D0
:1025AC0020225A65FB68002283F8502001231DE08D
:1025BC00FB689B68002B0AD100233B61FB681B68FE
:1025CC00DB683B61FB681B689B683B613B69FB6894
:1025DC00012283F85120FB68002283F85020FB680D
:1025EC005B6D002B01D0012300E000231846283737
:1025FC00BD4680BD80B483B000AF78607B6893F833
:10260C005130DBB218460C37BD4680BC7047000019
:10261C0080B588B000AFF860B9603B601346FB71C1
:10262C00FEF720FE0246BB6A9B1A3A681344FB6114
:10263C00FEF718FEB861394B1B685B011B0DFA697C
:10264C0002FB03F37B6154E03B68B3F1FF3F50D0D6
:10265C00FEF708FE0246BB69D31AFA699A4202D900
:10266C00FB69002B3DD1FB681B685A68FB681B6833
:10267C0022F0E0025A60FB685B68B3F5827F11D1EF
:10268C00FB689B68B3F5004F04D0FB689B68B3F5FF
:10269C00806F07D1FB681B681A68FB681B6822F007
:1026AC0040021A60FB689B6AB3F5005F0FD1FB68B0
:1026BC001B681A68FB681B6822F400521A60FB68DE
:1026CC001B681A68FB681B6842F400521A60FB68AE
:1026DC00012283F85120FB68002283F85020032349
:1026EC0017E07B69002B01D10023FB617B69013B67
:1026FC007B61FB681B689A68BB681340BA689A4296
:10270C000CBF01230023DBB21A46FB799A429BD102
:10271C00002318462037BD4680BD00BF00000020B6
:10272C0080B586B002AFF860B9607A607B680093C0
:10273C00BB6801220221F868FFF76AFF0346002BF1
:10274C0007D0FB685B6D43F02002FB685A650323DE
:10275C0013E07B680093BB6800228021F868FFF7C8
:10276C0057FF0346002B07D0FB685B6D43F020023C
:10277C00FB685A65032300E0002318461037BD465A
:10278C0080BD80B582B000AF78607B68002B01D132
:10279C00012341E07B6893F83D30DBB2002B06D17E
:1027AC007B68002283F83C20786801F045FE7B684A
:1027BC00022283F83D207B681A687B680433194633
:1027CC00104600F00DFA7B68012283F846207B68E6
:1027DC00012283F83E207B68012283F83F207B682E
:1027EC00012283F840207B68012283F841207B681A
:1027FC00012283F842207B68012283F843207B6806
:10280C00012283F844207B68012283F845207B68F1
:10281C00012283F83D20002318460837BD4680BDB1
:10282C0080B584B000AF78607B681B68DB68FB60A8
:10283C007B681B681B69BB60BB6803F00203002B41
:10284C0020D0FB6803F00203002B1BD07B681B68B5
:10285C006FF002021A617B6801221A777B681B6891
:10286C009B6903F00303002B03D0786800F09CF9FC
:10287C0005E0786800F08FF9786800F09EF97B68C5
:10288C0000221A77BB6803F00403002B20D0FB68EE
:10289C0003F00403002B1BD07B681B686FF0040251
:1028AC001A617B6802221A777B681B689B6903F4A8
:1028BC004073002B03D0786800F076F905E0786857
:1028CC0000F069F9786800F078F97B6800221A77D3
:1028DC00BB6803F00803002B20D0FB6803F008034F
:1028EC00002B1BD07B681B686FF008021A617B6899
:1028FC0004221A777B681B68DB6903F00303002B47
:10290C0003D0786800F050F905E0786800F043F9DE
:10291C00786800F052F97B6800221A77BB6803F0E4
:10292C001003002B20D0FB6803F01003002B1BD0EE
:10293C007B681B686FF010021A617B6808221A779B
:10294C007B681B68DB6903F44073002B03D0786849
:10295C0000F02AF905E0786800F01DF9786800F0BD
:10296C002CF97B6800221A77BB6803F00103002B5B
:10297C000CD0FB6803F00103002B07D07B681B68AD
:10298C006FF001021A61786800F0FCF8BB6803F084
:10299C008003002B0CD0FB6803F08003002B07D0C6
:1029AC007B681B686FF080021A61786800F0C6FBC8
:1029BC00BB6803F04003002B0CD0FB6803F0400312
:1029CC00002B07D07B681B686FF040021A61786897
:1029DC0000F0FCF8BB6803F02003002B0CD0FB6864
:1029EC0003F02003002B07D07B681B686FF02002DC
:1029FC001A61786800F099FB00BF1037BD4680BDA6
:102A0C0080B586B000AFF860B9607A600023FB75C2
:102A1C00FB6893F83C30012B01D10223AEE0FB683C
:102A2C00012283F83C207B680C2B00F29F8001A2D2
:102A3C0052F823F0752A0008792B0008792B00082E
:102A4C00792B0008B52A0008792B0008792B00088F
:102A5C00792B0008F72A0008792B0008792B00083D
:102A6C00792B0008372B0008FB681B68B9681846DF
:102A7C0000F024F9FB681B689A69FB681B6842F03C
:102A8C0008029A61FB681B689A69FB681B6822F054
:102A9C0004029A61FB681B689969BB681A69FB6838
:102AAC001B680A439A6164E0FB681B68B9681846A6
:102ABC0000F06AF9FB681B689A69FB681B6842F4B2
:102ACC0000629A61FB681B689A69FB681B6822F4B8
:102ADC0080629A61FB681B689969BB681B691A0262
:102AEC00FB681B680A439A6143E0FB681B68B96882
:102AFC00184600F0B3F9FB681B68DA69FB681B68C1
:102B0C0042F00802DA61FB681B68DA69FB681B6833
:102B1C0022F00402DA61FB681B68D969BB681A6988
:102B2C00FB681B680A43DA6123E0FB681B68B96821
:102B3C00184600F0FDF9FB681B68DA69FB681B6836
:102B4C0042F40062DA61FB681B68DA69FB681B6897
:102B5C0022F48062DA61FB681B68D969BB681B6967
:102B6C001A02FB681B680A43DA6102E00123FB7559
:102B7C0000BFFB68002283F83C20FB7D1846183709
:102B8C00BD4680BD80B483B000AF786000BF0C3709
:102B9C00BD4680BC704780B483B000AF786000BF86
:102BAC000C37BD4680BC704780B483B000AF7860F2
:102BBC0000BF0C37BD4680BC704780B483B000AFFB
:102BCC00786000BF0C37BD4680BC704780B483B0C2
:102BDC0000AF786000BF0C37BD4680BC704700006A
:102BEC0080B485B000AF786039607B681B68FB608F
:102BFC007B682F4A93420BD07B68B3F1804F07D090
:102C0C007B682C4A934203D07B682B4A934208D1B1
:102C1C00FB6823F07003FB603B685B68FA68134346
:102C2C00FB607B68224A93420BD07B68B3F1804FE8
:102C3C0007D07B681F4A934203D07B681E4A93429D
:102C4C0008D1FB6823F44073FB603B68DB68FA68CF
:102C5C001343FB60FB6823F080023B685B69134302
:102C6C00FB607B68FA681A603B689A687B68DA627A
:102C7C003B681A687B689A627B680D4A934203D161
:102C8C003B681A697B681A637B6801225A617B680E
:102C9C001B6903F00103002B05D07B681B6923F033
:102CAC0001027B681A6100BF1437BD4680BC7047B7
:102CBC00002C0140000400400008004080B487B0A4
:102CCC0000AF786039607B681B6A7B617B681B6A2C
:102CDC0023F001027B681A627B685B683B617B684E
:102CEC009B69FB60FB6823F07003FB60FB6823F0BF
:102CFC000303FB603B681B68FA681343FB607B694A
:102D0C0023F002037B613B689B687A6913437B6108
:102D1C007B681C4A93420CD17B6923F008037B61CE
:102D2C003B68DB687A6913437B617B6923F004039E
:102D3C007B617B68134A934211D13B6923F4807306
:102D4C003B613B6923F400733B613B685B693A6907
:102D5C0013433B613B689B693A6913433B617B6856
:102D6C003A695A607B68FA689A613B685A687B6872
:102D7C005A637B687A691A6200BF1C37BD4680BCF7
:102D8C00704700BF002C014080B487B000AF786062
:102D9C0039607B681B6A7B617B681B6A23F01002BD
:102DAC007B681A627B685B683B617B689B69FB6034
:102DBC00FB6823F4E043FB60FB6823F44073FB6087
:102DCC003B681B681B02FA681343FB607B6923F0AA
:102DDC0020037B613B689B681B017A6913437B6111
:102DEC007B681D4A93420DD17B6923F080037B6184
:102DFC003B68DB681B017A6913437B617B6923F0B9
:102E0C0040037B617B68144A934213D13B6923F4E2
:102E1C0080633B613B6923F400633B613B685B6906
:102E2C009B003A6913433B613B689B699B003A6981
:102E3C0013433B617B683A695A607B68FA689A6114
:102E4C003B685A687B689A637B687A691A6200BF30
:102E5C001C37BD4680BC7047002C014080B487B045
:102E6C0000AF786039607B681B6A7B617B681B6A8A
:102E7C0023F480727B681A627B685B683B617B68B9
:102E8C00DB69FB60FB6823F07003FB60FB6823F0DD
:102E9C000303FB603B681B68FA681343FB607B69A8
:102EAC0023F400737B613B689B681B027A691343B4
:102EBC007B617B681D4A93420DD17B6923F40063CF
:102ECC007B613B68DB681B027A6913437B617B691E
:102EDC0023F480637B617B68144A934213D13B6972
:102EEC0023F480533B613B6923F400533B613B6803
:102EFC005B691B013A6913433B613B689B691B018E
:102F0C003A6913433B617B683A695A607B68FA689B
:102F1C00DA613B685A687B68DA637B687A691A62A3
:102F2C0000BF1C37BD4680BC704700BF002C014061
:102F3C0080B487B000AF786039607B681B6A3B61F6
:102F4C007B681B6A23F480527B681A627B685B681F
:102F5C007B617B68DB69FB60FB6823F4E043FB600F
:102F6C00FB6823F44073FB603B681B681B02FA6828
:102F7C001343FB603B6923F400533B613B689B6844
:102F8C001B033A6913433B617B680F4A934209D197
:102F9C007B6923F480437B613B685B699B017A69A5
:102FAC0013437B617B687A695A607B68FA68DA61E3
:102FBC003B685A687B681A647B683A691A6200BF7E
:102FCC001C37BD4680BC7047002C014080B485B0D6
:102FDC0000AF786039607B6893F83C30012B01D1ED
:102FEC00022346E07B68012283F83C207B680222A6
:102FFC0083F83D207B681B685B68FB607B681B6803
:10300C009B68BB60FB6823F07003FB603B681B682C
:10301C00FA681343FB607B681B68FA685A607B682C
:10302C001B68164A93420ED07B681B68B3F1804F25
:10303C0009D07B681B68124A934204D07B681B68DA
:10304C00104A93420CD1BB6823F08003BB603B68F1
:10305C005B68BA681343BB607B681B68BA689A608C
:10306C007B68012283F83D207B68002283F83C209A
:10307C00002318461437BD4680BC7047002C014015
:10308C00000400400008004080B485B000AF7860B8
:10309C0039600023FB607B6893F83C30012B01D135
:1030AC0002233DE07B68012283F83C20FB6823F07F
:1030BC00FF023B68DB681343FB60FB6823F4407240
:1030CC003B689B681343FB60FB6823F480623B689E
:1030DC005B681343FB60FB6823F400623B681B686E
:1030EC001343FB60FB6823F480523B681B6913435A
:1030FC00FB60FB6823F400523B685B691343FB6085
:10310C00FB6823F480423B68DB691343FB607B68FC
:10311C001B68FA685A647B68002283F83C20002301
:10312C0018461437BD4680BC704780B483B000AFDE
:10313C00786000BF0C37BD4680BC704780B483B04C
:10314C0000AF786000BF0C37BD4680BC704780B5BF
:10315C0082B000AF78607B68002B01D1012342E084
:10316C007B6893F84130DBB2002B06D17B680022E0
:10317C0083F84020786801F0AFF97B68242283F84B
:10318C0041207B681B68DA687B681B6822F400525C
:10319C00DA60786800F062FD7B681B681A697B68EE
:1031AC001B6822F490421A617B681B685A697B6821
:1031BC001B6822F02A025A617B681B68DA687B68FC
:1031CC001B6842F40052DA607B6800225A647B6808
:1031DC00202283F841207B68202283F842207B68E0
:1031EC0000225A63002318460837BD4680BD80B5BF
:1031FC008AB002AFF860B9603B601346FB800023D5
:10320C007B61FB6893F84130DBB2202B75D1BB6836
:10321C00002B02D0FB88002B01D101236EE0FB6850
:10322C0000225A64FB68212283F84120FEF71AF829
:10323C007861FB68FA889A84FB68FA88DA84FB6800
:10324C009B68B3F5805F08D1FB681B69002B04D128
:10325C000023FB61BB68BB6103E0BB68FB6100231F
:10326C00BB612EE03B6800937B6900228021F868EB
:10327C0000F000FB0346002B05D0FB68202283F8EE
:10328C00412003233AE0FB69002B0BD1BB691B885F
:10329C001A46FB681B68C2F308025A60BB6902330A
:1032AC00BB6107E0FB691A78FB681B685A60FB6915
:1032BC000133FB61FB68DB8C9BB2013B9AB2FB6870
:1032CC00DA84FB68DB8C9BB2002BCBD13B68009380
:1032DC007B6900224021F86800F0CCFA0346002BF1
:1032EC0005D0FB68202283F84120032306E0FB680D
:1032FC00202283F84120002300E0022318462037C7
:10330C00BD4680BD80B5BAB000AF78607B681B68E5
:10331C001B68C7F8E4307B681B68DB68C7F8E030D3
:10332C007B681B685B69C7F8DC300023C7F8D830B2
:10333C000023C7F8D430D7F8E43003F00F03C7F8F4
:10334C00D830D7F8D830002B0FD1D7F8E43003F0B1
:10335C002003002B09D0D7F8E03003F02003002B1A
:10336C0003D0786800F0BCFB5BE2D7F8D830002BB8
:10337C0000F0DE80D7F8DC3003F00103002B06D11F
:10338C00D7F8E03003F49073002B00F0D180D7F81D
:10339C00E43003F00103002B0BD0D7F8E03003F43A
:1033AC008073002B05D07B685B6C43F001027B685B
:1033BC005A64D7F8E43003F00403002B0BD0D7F891
:1033CC00DC3003F00103002B05D07B685B6C43F011
:1033DC0002027B685A64D7F8E43003F00203002B36
:1033EC000BD0D7F8DC3003F00103002B05D07B6841
:1033FC005B6C43F004027B685A64D7F8E43003F04A
:10340C000803002B11D0D7F8E03003F02003002B79
:10341C0005D1D7F8DC3003F00103002B05D07B6815
:10342C005B6C43F008027B685A647B685B6C002B16
:10343C0000F0F281D7F8E43003F02003002B08D021
:10344C00D7F8E03003F02003002B02D0786800F0AE
:10345C0047FB7B681B685B6903F04003002B14BFC0
:10346C0001230023DBB2C7F8D4307B685B6C03F01C
:10347C000803002B03D1D7F8D430002B4FD0786839
:10348C0000F051FA7B681B685B6903F04003002B6A
:10349C0041D07B681B681433C7F89C30D7F89C303C
:1034AC0053E8003FC7F89830D7F8983023F0400322
:1034BC00C7F8D0307B681B681433D7F8D020C7F816
:1034CC00A820C7F8A430D7F8A410D7F8A82041E852
:1034DC000023C7F8A030D7F8A030002BD9D17B68D7
:1034EC00DB6B002B13D07B68DB6B7E4A5A637B68EB
:1034FC00DB6B1846FEF7CCFC0346002B16D07B6822
:10350C00DB6B5B6B7A68D26B104698470EE0786881
:10351C0000F09CF90AE0786800F098F906E0786809
:10352C0000F094F97B6800225A6475E100BF73E1E6
:10353C007B681B6B012B40F04F81D7F8E43003F014
:10354C001003002B00F04881D7F8E03003F0100393
:10355C00002B00F041810023BB607B681B681B685B
:10356C00BB607B681B685B68BB60BB687B681B6867
:10357C005B6903F04003002B00F0B6807B68DB6BCB
:10358C001B685B68A7F8BE30B7F8BE30002B00F0A4
:10359C0045817B689B8DB7F8BE209A4280F03E81B6
:1035AC007B68B7F8BE20DA857B68DB6B9B69202BC8
:1035BC0000F088807B681B680C33C7F88830D7F81C
:1035CC00883053E8003FC7F88430D7F8843023F4B0
:1035DC008073C7F8B8307B681B680C33D7F8B820F9
:1035EC00C7F89420C7F89030D7F89010D7F89420EB
:1035FC0041E80023C7F88C30D7F88C30002BD9D198
:10360C007B681B6814337B677B6F53E8003F3B6719
:10361C003B6F23F00103C7F8B4307B681B6814338D
:10362C00D7F8B420C7F88020FB67F96FD7F8802053
:10363C0041E80023BB67BB6F002BE1D17B681B68A3
:10364C0014333B663B6E53E8003FFB65FB6D23F088
:10365C004003C7F8B0307B681B681433D7F8B02030
:10366C00FA66BB66B96EFA6E41E800237B667B6E28
:10367C00002BE3D17B68202283F842207B68002258
:10368C001A637B681B680C33FB64FB6C53E8003FCC
:10369C00BB64BB6C23F01003C7F8AC307B681B68B1
:1036AC000C33D7F8AC20BA657B65796DBA6D41E8FF
:1036BC0000233B653B6D002BE3D17B68DB6B18462D
:1036CC00FEF7AAFB7B6802225A637B689A8D7B68A3
:1036DC00DB8D9BB2D31A9BB21946786800F0BFF809
:1036EC009CE000BFF73900087B689A8D7B68DB8D06
:1036FC009BB2D31AA7F8CE307B68DB8D9BB2002B24
:10370C0000F08E80B7F8CE30002B00F089807B68FB
:10371C001B680C33BB63BB6B53E8003F7B637B6B59
:10372C0023F49073C7F8C8307B681B680C33D7F848
:10373C00C8207A643B64396C7A6C41E80023FB63E3
:10374C00FB6B002BE3D17B681B6814337B627B6AB9
:10375C0053E8003F3B623B6A23F00103C7F8C430D7
:10376C007B681B681433D7F8C4203A63FB62F96A90
:10377C003A6B41E80023BB62BB6A002BE3D17B6848
:10378C00202283F842207B6800221A637B681B6826
:10379C000C333B613B6953E8003FFB60FB6823F053
:1037AC001003C7F8C0307B681B680C33D7F8C020F7
:1037BC00FA61BB61B969FA6941E800237B617B69F5
:1037CC00002BE3D17B6802225A63B7F8CE3019463E
:1037DC00786800F044F823E0D7F8E43003F0800375
:1037EC00002B09D0D7F8E03003F08003002B03D076
:1037FC00786800F00EF914E0D7F8E43003F04003D9
:10380C00002B0ED0D7F8E03003F04003002B08D08B
:10381C00786800F04DF904E000BF02E000BF00E062
:10382C0000BFE837BD4680BD80B483B000AF786080
:10383C0000BF0C37BD4680BC704780B483B000AF6E
:10384C00786000BF0C37BD4680BC704780B483B035
:10385C0000AF786000BF0C37BD4680BC704780B4A9
:10386C0083B000AF78600B467B8000BF0C37BD4641
:10387C0080BC704780B586B000AFF860B9603B6023
:10388C001346FB713BE03B6AB3F1FF3F37D0FDF7CA
:10389C00E9FC02463B68D31A3A6A9A4202D33B6A65
:1038AC00002B01D103233AE0FB681B68DB6803F0B3
:1038BC000403002B23D0BB68802B20D0BB68402B8B
:1038CC001DD0FB681B681B6803F00803082B16D17E
:1038DC0000237B61FB681B681B687B61FB681B68B2
:1038EC005B687B617B69F86800F01DF8FB68082257
:1038FC005A64FB68002283F8402001230FE0FB6828
:10390C001B681A68BB681340BA689A420CBF012343
:10391C000023DBB21A46FB799A42B4D00023184636
:10392C001837BD4680BD80B495B000AF78607B6819
:10393C001B680C337B637B6B53E8003F3B633B6B37
:10394C0023F49073FB647B681B680C33FA6C3A6449
:10395C00FB63F96B3A6C41E80023BB63BB6B002B38
:10396C00E5D17B681B6814333B623B6A53E8003F2C
:10397C00FB61FB6923F00103BB647B681B68143398
:10398C00BA6CFA62BB62B96AFA6A41E800237B62DC
:10399C007B6A002BE5D17B681B6B012B19D17B68F3
:1039AC001B680C33FB60FB6853E8003FBB60BB68D3
:1039BC0023F010037B647B681B680C337A6CBA6150
:1039CC007B617969BA6941E800233B613B69002B53
:1039DC00E5D17B68202283F842207B6800221A63A1
:1039EC0000BF5437BD4680BC704780B584B000AF73
:1039FC0078607B685B6AFB60FB680022DA85FB6899
:103A0C000022DA84F868FFF721FF00BF1037BD46AB
:103A1C0080BD80B485B000AF78607B6893F841308E
:103A2C00DBB2212B3ED17B689B68B3F5805F14D150
:103A3C007B681B69002B10D17B681B6AFB60FB68E1
:103A4C001B881A467B681B68C2F308025A607B68A5
:103A5C001B6A9A1C7B681A6208E07B681B6A591CFB
:103A6C007A6811621A787B681B685A607B68DB8CF9
:103A7C009BB2013B9BB27A681946D184002B0FD1C3
:103A8C007B681B68DA687B681B6822F08002DA604E
:103A9C007B681B68DA687B681B6842F04002DA605E
:103AAC00002300E0022318461437BD4680BC704743
:103ABC0080B582B000AF78607B681B68DA687B6881
:103ACC001B6822F04002DA607B68202283F84120D8
:103ADC007868FFF7A9FE002318460837BD4680BD5D
:103AEC0080B58CB000AF78607B6893F84230DBB265
:103AFC00222B40F0AE807B689B68B3F5805F17D1BA
:103B0C007B681B69002B13D10023FB627B689B6ACB
:103B1C00BB627B681B685B689BB2C3F308039AB2F9
:103B2C00BB6A1A807B689B6A9A1C7B689A6226E047
:103B3C007B689B6AFB620023BB627B689B68B3F566
:103B4C00805F07D07B689B68002B0AD17B681B6960
:103B5C00002B06D17B681B685B68DAB2FB6A1A70B3
:103B6C0008E07B681B685B68DBB203F07F03DAB2AA
:103B7C00FB6A1A707B689B6A5A1C7B689A627B682A
:103B8C00DB8D9BB2013B9BB27A681946D185002B29
:103B9C005DD17B681B68DA687B681B6822F02002A9
:103BAC00DA607B681B68DA687B681B6822F48072B9
:103BBC00DA607B681B685A697B681B6822F001021B
:103BCC005A617B68202283F842207B6800225A636A
:103BDC007B681B6B012B35D17B6800221A637B68D9
:103BEC001B680C337B617B6953E8003F3B613B698D
:103BFC0023F010037B627B681B680C337A6A3A6291
:103C0C00FB61F9693A6A41E80023BB61BB69002B8F
:103C1C00E5D17B681B681B6803F01003102B0AD1DD
:103C2C000023FB607B681B681B68FB607B681B6860
:103C3C005B68FB60FB687B689B8D19467868FFF7B7
:103C4C000EFE02E07868FFF7F8FD002302E0002387
:103C5C0000E0022318463037BD4680BD80B584B0E5
:103C6C0000AF78607B681B681B6923F440517B684C
:103C7C00DA687B681B680A431A617B689A687B6800
:103C8C001B691A437B685B691343BB607B681B68C9
:103C9C00DB6823F4B05323F00C037A681268B9681C
:103CAC000B43D3607B681B685B6923F440717B68B2
:103CBC009A697B681B680A435A617B681B682C4AAB
:103CCC00934203D1FDF7DAFEF86002E0FDF7C2FE85
:103CDC00F860FA6813469B0013449A001A447B68F8
:103CEC005B689B00B2FBF3F3224AA2FB03235B0944
:103CFC001901FA6813469B0013449A001A447B6816
:103D0C005B689B00B2FBF3F21A4BA3FB02035B094B
:103D1C00642000FB03F3D31A1B013233154AA2FBB8
:103D2C0003235B0903F0F0031944FA6813469B0064
:103D3C0013449A001A447B685B689B00B2FBF3F255
:103D4C000C4BA3FB02035B09642000FB03F3D31AA7
:103D5C001B013233074AA2FB03235B0903F00F025A
:103D6C007B681B680A449A6000BF1037BD4680BD53
:103D7C00003801401F85EB5180B584B000AFFDF7D2
:103D8C0019FA00F05BF800F0A1F800F0D3FA00F09B
:103D9C0079FB00F0D9F800F0A3F90023FB730A209B
:103DAC00FDF76AFA8023BB7300237B73002240214A
:103DBC001F48FEF719F807F10E030121184600F011
:103DCC002DFA07F10D030121184600F06FFA7B7BE9
:103DDC001946184800F0E6FD012240211448FEF770
:103DEC0003F84AF605333B8107F108030222194612
:103DFC00502000F017F90A20FDF73EFA0523FB715D
:103E0C000023BB71FB1D01221946502000F00AF95A
:103E1C00BB1D01221946502000F032F9BB7919461E
:103E2C00054800F0BFFD002318461037BD4680BD85
:103E3C00000C0140745700088C57000880B590B0F6
:103E4C0000AF07F1180328220021184600F0F2FEFB
:103E5C003B1D00221A605A609A60DA601A610223D4
:103E6C00BB610123BB621023FB6202237B63002333
:103E7C00BB634FF46013FB6307F118031846FDF79F
:103E8C001FFA0346002B01D000F019F80F237B60BA
:103E9C000223BB608023FB604FF480633B610023F3
:103EAC007B613B1D02211846FDF78CFC0346002B61
:103EBC0001D000F004F800BF4037BD4680BD80B48F
:103ECC0000AF72B600BF00BFFDE7000080B586B042
:103EDC0000AF07F1080300221A605A609A60DA609A
:103EEC00174B9B69164A43F004039361144B9B696F
:103EFC0003F004037B607B68114B9B69104A43F011
:103F0C00080393610E4B9B6903F008033B603B680D
:103F1C00002230210B48FDF767FF3023BB600123E3
:103F2C00FB6000233B6102237B6107F10803194608
:103F3C000448FDF7D5FD00BF1837BD4680BD00BF56
:103F4C00001002400008014080B500AF124B134A2C
:103F5C001A60114B124A5A600F4B00229A600E4B9A
:103F6C000022DA600C4B4FF480421A610A4B00229B
:103F7C005A61094B00229A61074B0022DA61064B09
:103F8C0000221A620448FCF7E1F80346002B01D02A
:103F9C00FFF795FF00BF80BD8C000020005800404B
:103FAC00A086010080B588B000AF786007F11003DF
:103FBC0000221A605A609A60DA607B681B68164AA5
:103FCC00934224D1154B9B69144A43F00803936127
:103FDC00124B9B6903F00803FB60FB684FF44063D2
:103FEC003B6112237B610323FB6107F1100319462C
:103FFC000B48FDF775FD094BDB69084A43F4800358
:10400C00D361064BDB6903F48003BB60BB6800BF64
:10401C002037BD4680BD00BF005800400010024054
:10402C00000C014080B586B002AF03463960FB80BE
:10403C001346BB806423FB60FB885B009BB2DBB246
:10404C007B81BA887989FB68009313463A680A48E1
:10405C00FCF7C0F903467B727B7A002B07D07B7A86
:10406C00FA881946054800F09DFC012300E0002366
:10407C0018461037BD4680BD8C000020B057000894
:10408C0080B586B002AF03463960FB801346BB8017
:10409C006423FB60FB885B001BB243F001031BB283
:1040AC007B81BA887989FB68009313463A680A4881
:1040BC00FCF78EFA03467B727B7A002B07D07B7A57
:1040CC00FA881946054800F06DFC012300E0002336
:1040DC0018461037BD4680BD8C000020D85700080C
:1040EC0080B500AF174B184A1A60164B4FF482720A
:1040FC005A60144B00229A60124B0022DA60114B6A
:10410C0000221A610F4B00225A610E4B4FF40072C1
:10411C009A610C4B0822DA610A4B00221A62094B95
:10412C0000225A62074B00229A62064B0A22DA627C
:10413C000448FEF732F80346002B01D0FFF7BFFE10
:10414C0000BF80BDE00000200030014080B58AB087
:10415C0000AF786007F1140300221A605A609A606D
:10416C00DA607B681B68294A93424BD1284B9B69C8
:10417C00274A43F480539361254B9B6903F4805386
:10418C003B613B69224B9B69214A43F008039361D5
:10419C001F4B9B6903F00803FB60FB6828237B61C2
:1041AC000223BB6103233B6207F114031946194830
:1041BC00FDF796FC10237B610023BB610023FB61A0
:1041CC0007F1140319461348FDF78AFC124B5B6880
:1041DC007B627B6A43F0E0637B627B6A43F00103A2
:1041EC007B620D4A7B6A536040237B610123BB6178
:1041FC000023FB6102233B6207F1140319460548B7
:10420C00FDF76EFC00BF2837BD4680BD0030014075
:10421C0000100240000C01400000014080B586B047
:10422C0002AF78600B467B800023FB731C48FEF7C3
:10423C00E1F90346032B2AD00023BB8115E00023B0
:10424C00FB72BB897A68D11807F10B024FF0FF3370
:10425C00009301231248FEF724F80346FB73FB7B03
:10426C00002B07D1BB890133BB81BA897B889A4269
:10427C00E5D300E000BFFB7B002B01D100230AE05B
:10428C00FB7B1946074800F08DFB012303E0064831
:10429C0000F0F0FB012318461037BD4680BD00BF6F
:1042AC00E0000020005800080C58000880B586B0CB
:1042BC0002AF78600B467B800023FB731B48FEF734
:1042CC0099F90346042B28D00023BB8115E0002369
:1042DC00FB72BB897A681A4407F10B014FF0FF336C
:1042EC00009301231148FDF7DCFF0346FB73FB7BB6
:1042FC00002B07D1BB890133BB81BA897B889A42D9
:10430C00E5D300E000BFFB7B002B01D1002308E0CC
:10431C00074800F0AFFB012303E0054800F0AAFBBF
:10432C00012318461037BD4680BD00BFE0000020B9
:10433C001458000880B592B000AF07F1400300227A
:10434C001A605A6007F1240300221A605A609A60BE
:10435C00DA601A615A619A613B1D202200211846CD
:10436C0000F068FC324B334A1A60314B02225A601F
:10437C002F4B00229A602E4B4FF6FF72DA602C4BBB
:10438C0000221A612A4B00225A61294B00229A61A1
:10439C002748FEF7F6F90346002B01D0FFF78FFDF7
:1043AC0000233B6400237B6407F14003194620483B
:1043BC00FEF70CFE0346002B01D0FFF780FD6023B7
:1043CC007B624FF40043BB620023FB6200233B6320
:1043DC0000237B630023BB630023FB6307F12403EF
:1043EC00002219461248FEF70BFB0346002B01D0A6
:1043FC00FFF765FD00237B600023BB600023FB609F
:10440C0000233B6100237B614FF40053BB6100230D
:10441C003B623B1D19460648FEF736FE0346002B51
:10442C0001D0FFF74CFD00BF4837BD4680BD00BF33
:10443C0038010020002C014080B584B000AF7860BA
:10444C007B681B680D4A934213D10D4B9B690C4A38
:10445C0043F4006393610A4B9B6903F40063FB60B4
:10446C00FB68002200211A20FDF761FE1A20FDF7DF
:10447C007AFE00BF1037BD4680BD00BF002C014046
:10448C000010024080B500AF114B124A1A60104B5D
:10449C004FF4E1325A600E4B00229A600C4B002212
:1044AC00DA600B4B00221A61094B0C225A61084B43
:1044BC0000229A61064B0022DA610548FEF747FE9E
:1044CC000346002B01D0FFF7FAFC00BF80BD00BFF4
:1044DC00800100200038014080B588B000AF7860C2
:1044EC0007F1100300221A605A609A60DA607B6848
:1044FC001B68204A934239D11F4B9B691E4A43F4D7
:10450C00804393611C4B9B6903F48043FB60FB6805
:10451C00194B9B69184A43F004039361164B9B6932
:10452C0003F00403BB60BB684FF400733B610223D0
:10453C007B610323FB6107F1100319460F48FDF75C
:10454C00CFFA4FF480633B6100237B610023BB6196
:10455C0007F1100319460948FDF7C2FA00220021A1
:10456C002520FDF7E4FD2520FDF7FDFD00BF2037DC
:10457C00BD4680BD003801400010024000080140DB
:10458C0080B582B000AF7860391D4FF6FF73012201
:10459C000348FEF72CFE7B6818460837BD4680BDE5
:1045AC008001002080B400AF00BFFDE780B400AFF5
:1045BC0000BFFDE780B400AF00BFFDE780B400AFE3
:1045CC0000BFFDE780B400AF00BFFDE780B400AFD3
:1045DC0000BFBD4680BC704780B400AF00BFBD4675
:1045EC0080BC704780B400AF00BFBD4680BC704734
:1045FC0080B500AF034B01221A70FCF721FE00BFFF
:10460C0080BD00BF8800002080B500AF0248FEF7D7
:10461C0007F900BF80BD00BF3801002080B500AF96
:10462C000248FEF76FFE00BF80BD00BF8001002076
:10463C0080B485B000AF154B9B69144A43F001035D
:10464C009361124B9B6903F00103BB60BB680F4B7A
:10465C00DB690E4A43F08053D3610C4BDB6903F0EA
:10466C0080537B607B680A4B5B68FB60FB6823F0C4
:10467C00E063FB60FB6843F08063FB60044AFB680B
:10468C00536000BF1437BD4680BC70470010024019
:10469C000000014080B586B000AF7860144A154B1D
:1046AC00D31A7B617B693B61134B1B68002B02D1D6
:1046BC00114B124A1A60104B1A687B6813443A6902
:1046CC009A4207D200F004FB03460C221A604FF00A
:1046DC00FF3309E0084B1B68FB60074B1A687B68CB
:1046EC001344054A1360FB6818461837BD4680BD55
:1046FC000050002000040000C80100201803002016
:10470C0080B586B000AFF860B9607A6000237B6139
:10471C000AE0AFF300800146BB685A1CBA60CAB20B
:10472C001A707B6901337B617A697B689A42F0DB92
:10473C007B6818461837BD4680BD80B586B000AF83
:10474C00F860B9607A6000237B6109E0BB685A1C91
:10475C00BA601B781846FFF713FF7B6901337B6146
:10476C007A697B689A42F1DB7B6818461837BD463C
:10477C0080BD80B483B000AF78604FF0FF33184633
:10478C000C37BD4680BC704780B483B000AF7860F6
:10479C0039603B684FF400525A60002318460C37BE
:1047AC00BD4680BC704780B483B000AF78600123F5
:1047BC0018460C37BD4680BC704780B485B000AF3E
:1047CC00F860B9607A60002318461437BD4680BC87
:1047DC0070470000FBF7B4FC0B480C490C4A002353
:1047EC0002E0D458C4500433C4188C42F9D3094A9B
:1047FC00094C002301E013600432A242FBD300F009
:10480C006DFAFFF7B9FA704700000020680000202D
:10481C00885800086800002018030020FEE70000FC
:10482C00002310B50446C0E90033C0E904338360AB
:10483C0081814366C2818361194608225C3000F095
:10484C00F9F90D4B246263620C4BA3620C4BE362CF
:10485C000C4B23630C4B9C4206D003F16802944230
:10486C0002D0D0339C4205D104F15800BDE8104071
:10487C0000F058BA10BD00BF914A0008B34A0008B6
:10488C00EB4A00080F4B0008CC010020024A0349F8
:10489C00034800F069B800BF0C000020C95500089F
:1048AC001C00002041680C4B10B59942044601D005
:1048BC0000F084FEA168094B994202D0204600F01A
:1048CC007DFEE168064B994204D02046BDE81040BD
:1048DC0000F074BE10BD00BFCC01002034020020DB
:1048EC009C02002010B50B4B0B4C0C4A20461A6056
:1048FC0004210022FFF794FF04F168000122092132
:10490C00FFF78EFF04F1D0000222BDE81040122107
:10491C00FFF786BF04030020CC0100209948000853
:10492C00014800F000BA00BF0D030020014800F060
:10493C00FBB900BF0D03002010B50446FFF7F0FFD4
:10494C00236A1BB1BDE81040FFF7F0BF044B236294
:10495C00044B1B68002BF5D1FFF7C4FFF2E700BF37
:10496C00B1480008040300202DE9F84307468846A7
:10497C0014460026D4E90195B9F1010905D524683E
:10498C00002CF7D13046BDE8F883AB89012B07D951
:10499C00B5F90E30013303D029463846C0470643DB
:1049AC006835E9E70FB407B5064904AB086853F856
:1049BC00042B8168019300F0D7FA03B05DF804EB87
:1049CC0004B0704718000020036A70B505460E4607
:1049DC0084680BB9FFF7B0FF636EDB0705D4A389BE
:1049EC00980502D4A06D00F09EF9A389190702D591
:1049FC002369002B35D12146284600F0C5F880B339
:104A0C004FF0FF35636EDA0705D4A3899B0502D4FA
:104A1C00A06D00F089F9284670BD002B04DAA2695C
:104A2C009A4217DC0A2915D023685A1C2260197087
:104A3C00A36816F8011F013BA3600029EDD1002BE0
:104A4C0011DA22460A21284600F05FF80130D7D04F
:104A5C000A25D7E72246284600F057F80130E7D15F
:104A6C00CEE7013EE4E723685A1C22600A221A7042
:104A7C00EEE70000024B01461868FFF7A5BF00BF28
:104A8C001800002010B50C46B1F90E1000F0FCF81F
:104A9C000028ABBF636DA3891B1823F48053ACBFF4
:104AAC006365A38110BD2DE9F0411F468B89054636
:104ABC00DB050C46164605D502230022B1F90E1073
:104ACC0000F0D0F8A389324623F48053A381284602
:104ADC003B46B4F90E10BDE8F04100F0E7B810B554
:104AEC000C46B1F90E1000F0BDF8431CA38915BF9C
:104AFC00606523F4805343F48053A38118BFA381D2
:104B0C0010BDB1F90E1000F09DB8F8B50E46144664
:104B1C00054618B1036A0BB9FFF70EFFA369A36032
:104B2C00A3891A0701D5236943B92146284600F009
:104B3C002BF818B14FF0FF373846F8BD23682269BF
:104B4C00F6B2981A63693746834205DC214628463B
:104B5C0000F034FD0028EDD1A368013BA36023686D
:104B6C005A1C22601E706269431C9A4204D0A389AD
:104B7C00DB07E1D50A2EDFD12146284600F01EFDC9
:104B8C000028D9D0D6E7000038B5294B054618685F
:104B9C000C4618B1036A0BB9FFF7CEFEB4F90C3012
:104BAC00190722D4DA0607D409222A6043F04003FD
:104BBC004FF0FF30A38133E0580712D5616B41B140
:104BCC0004F14403994202D0284600F0AFF80023C8
:104BDC006363A38923F02403A38100236360236907
:104BEC002360A38943F00803A38123694BB9A389EC
:104BFC0003F42073B3F5007F03D02146284600F060
:104C0C002AFDB4F90C3013F001020AD00022A26084
:104C1C0062695242A261226942B913F08000C5D187
:104C2C0038BD990758BF6269A260F4E70020F7E726
:104C3C001800002003460244934200D1704703F849
:104C4C00011BF9E738B50023054D044608462B60D7
:104C5C00FFF78FFD431C02D12B6803B1236038BDD5
:104C6C000803002038B50446084611460022054DBD
:104C7C002A601A46FFF7A1FD431C02D12B6803B131
:104C8C00236038BD0803002038B504460846114699
:104C9C000022054D2A601A46FFF732FD431C02D153
:104CAC002B6803B1236038BD0803002038B50446D7
:104CBC00084611460022054D2A601A46FFF73DFDB5
:104CCC00431C02D12B6803B1236038BD08030020BC
:104CDC00014B1868704700BF1800002070B5002603
:104CEC000C4D0D4C641BA410A64209D100F030FDF4
:104CFC0000260A4D0A4C641BA410A64205D170BDB7
:104D0C0055F8043B98470136EEE755F8043B9847B5
:104D1C000136F2E7805800088058000880580008D7
:104D2C0084580008704770477047000038B5054636
:104D3C00002940D051F8043C0C1F002BB8BFE418DC
:104D4C0000F0DEF81C4A136833B96360146028461F
:104D5C00BDE8384000F0DAB8A34208D92068211821
:104D6C008B4201BF19685B6809182160EDE71A4690
:104D7C005B680BB1A342FAD911685018A0420BD151
:104D8C0020680144501883421160E0D118685B68B8
:104D9C00084410605360DAE702D90C232B60D6E785
:104DAC00206821188B4201BF19685B6809182160C3
:104DBC0063605460CBE738BD1403002070B50F4E10
:104DCC000C463168054611B900F0A4FC3060214650
:104DDC00284600F09FFC431C03D14FF0FF342046C3
:104DEC0070BDC41C24F00304A042F8D0211A28463C
:104DFC0000F090FC0130F2D1EFE700BF100300206F
:104E0C002DE9F843CD1C25F0030508350C2D38BFD2
:104E1C000C25002D064601DBA94204D90C23336076
:104E2C000020BDE8F883DFF8D48000F069F8D8F8EA
:104E3C0000301C4644BB29463046FFF7BFFF431CDD
:104E4C00044658D1D8F800402746002F43D1002CF7
:104E5C004BD023683946304604EB030900F05AFC6A
:104E6C00814542D1216830466D1A2946FFF7A6FFCD
:104E7C0001303AD023682B442360D8F800305A68AC
:104E8C0062BBC8F800700FE02268521B20D40B2ABA
:104E9C0017D96119A342256018BF5960636808BF10
:104EAC00C8F8001062514B60304600F02FF804F146
:104EBC000B00231D20F00700C21A1CBF1B1AA350A5
:104ECC00AFE76268A3420CBFC8F800205A60EBE75A
:104EDC0023466468AEE73C467F68B6E71A465B68D3
:104EEC00A342FBD100235360DEE70C233046336032
:104EFC0000F00CF894E70560D6E700BF140300201F
:104F0C000148FFF710BF00BF0C0300200148FFF75A
:104F1C000BBF00BF0C030020936810B4013B002BA7
:104F2C00936007DA9469A34201DB0A2902D110BC11
:104F3C00FFF7EBBD1368581C10601970084610BCC5
:104F4C007047F8B506460F461446D518AC4201D149
:104F5C00002007E03A46304614F8011BFFF7DCFF4F
:104F6C00431CF3D1F8BD00002DE9F04F0D4614465B
:104F7C00984606469DB018B1036A0BB9FFF7DCFCE6
:104F8C006B6ED90705D4AB899A0502D4A86DFFF7CF
:104F9C00CAFEAB891B0701D52B699BB92946304644
:104FAC00FFF7F2FD70B16B6EDC0704D54FF0FF30EC
:104FBC001DB0BDE8F08FAB899805F7D4A86DFFF74D
:104FCC00B3FEF3E70023099320238DF82930302317
:104FDC004FF00109CDF80C80DFF8A8818DF82A304C
:104FEC0023469A4613F8012B0AB1252AF9D1BAEBBC
:104FFC00040B0BD05B46224629463046FFF7A1FF37
:10500C00013000F0A780099A5A4409929AF80030AE
:10501C00002B00F09F8000234FF0FF32CDE90523D9
:10502C000AF1010A049307938DF853301A935446EE
:10503C00052214F8011B534800F07CFB049AD8B9E4
:10504C00D10644BF20238DF85330130744BF2B23C4
:10505C008DF853309AF800302A2B15D05446002086
:10506C004FF00A0C079A214611F8013B303B092BF3
:10507C004BD9B0B1079214E0A0EB080309FA03F383
:10508C001343A2460493D2E7039B191D1B6803919B
:10509C00002BBBBF5B4242F0020207930793B8BFE1
:1050AC00049223782E2B0AD163782A2B32D1039BBE
:1050BC0002341A1D1B68039243EAE3730593DFF86D
:1050CC00C8A003225046217800F034FB38B14022AE
:1050DC00049BA0EB0A00824013430134049314F8A0
:1050EC00011B062229488DF8281000F023FB00280C
:1050FC003FD0274B1BBB039B073323F0070308331D
:10510C000393099B3B4409936AE70C4601200CFB73
:10511C000232A8E700234FF00A0C1946013405931C
:10512C00204610F8012B303A092A03D9002BC6D09F
:10513C000591C4E7044601230CFB0121F0E703AB06
:10514C0000932A463046134B04A9AFF30080074660
:10515C00781CD6D16B6ED90705D4AB899A0502D4CD
:10516C00A86DFFF7E1FDAB895B063FF51FAF099812
:10517C001EE703AB00932A463046064B04A900F009
:10518C007DF8E4E74A5800085058000854580008C5
:10519C00000000004F4F00082DE9F04716469846D6
:1051AC008A680B6907469342B8BF1346336091F87F
:1051BC0043200C46DDF820900AB10133336023689C
:1051CC00990642BF336802333360256815F0060533
:1051DC0006D104F1190AE36832689B1AAB422BDC46
:1051EC0094F843302268003B18BF0123920630D458
:1051FC004146384604F14302C847013023D02368A6
:10520C00226903F00603042B14BF002533684FF00A
:10521C00000608BFE56804F11A0408BFED1A54F83B
:10522C00123C08BF25EAE5759342C4BF9B1AED18E2
:10523C00B5421AD1002008E00123524641463846B7
:10524C00C847013003D14FF0FF30BDE8F08701357E
:10525C00C1E73020E11881F843005A1C94F845103E
:10526C002244023382F84310C2E70123224641460E
:10527C003846C8470130E6D00136D9E72DE9FF475B
:10528C000F7E9146782F80460C469A460C9E01F173
:10529C00430207D8622F0AD8002F00F0D380582F72
:1052AC0000F0BA8004F1420684F842703AE0A7F1AB
:1052BC006303152BF6D801A151F823F021530008F4
:1052CC0035530008B1520008B1520008B152000821
:1052DC00B152000835530008B1520008B152000811
:1052EC00B1520008B1520008375400085F5300084F
:1052FC00F1530008B1520008B1520008595400088B
:10530C00B15200085F530008B1520008B1520008B6
:10531C00F953000833681A1D1B68326004F1420609
:10532C0084F8423001239EE033682068191D3160F7
:10533C00060601D51D6803E04506FBD5B3F9005000
:10534C00002D03DA2D236D4284F843300A2359488B
:10535C0011E021683368080653F8045B02D449064F
:10536C0048BFADB26F2F336014BF0A2308235148D6
:10537C00002184F843106668002EA8BF2168A6603F
:10538C00A4BF21F0040121600DB9002E4BD01646AC
:10539C00B5FBF3F103FB1157C75D06F8017D2F46F2
:1053AC00BB420D46F4D9082B0BD12368DF0708D577
:1053BC00236961689942DEBF302306F8013C06F18F
:1053CC00FF36921B22614B4621464046CDF800A089
:1053DC0003AAFFF7E1FE01304AD14FF0FF3004B0D1
:1053EC00BDE8F087236843F0200323607827324818
:1053FC0084F84570236831681F0651F8045B02D4A9
:10540C005F0648BFADB23160D90744BF43F02003FB
:10541C0023601DB11023ABE72648E9E7236823F08E
:10542C0020032360F6E71646BDE733682568181D90
:10543C00616930602E061B6801D5196002E06806B0
:10544C00FBD51980002316462361BCE73368002185
:10545C001A1D32601E686268304600F06BF908B1A4
:10546C00801B606063682361002384F84330AAE7E3
:10547C003246494640462369D0470130ADD02368B7
:10548C009B0713D4E068039B9842B8BF1846A6E765
:10549C000123324649464046D04701309DD0013564
:1054AC00E36803995B1AAB42F2DCEBE7002504F1ED
:1054BC001906F5E75B5800086C580008B1F90C2088
:1054CC00F8B5160705460C4654D44B68002B02DC85
:1054DC000B6C002B48DDE66A002E45D0002312F43D
:1054EC0080522F68216A2B6030D0626DA3895907D6
:1054FC0005D56368D21A636B0BB1236CD21A0023E7
:10550C002846E66A216AB047431CA38906D129685C
:10551C001D292BD8284A0A41D60727D400226260BD
:10552C002269D904226004D5421C01D12B6803B92D
:10553C006065616B2F60B9B104F14403994202D0EC
:10554C002846FFF7F3FB002363630DE00123284695
:10555C00B0470246501CC9D12B68002BC6D01D2B5E
:10556C0001D0162B1DD12F60002021E043F0400309
:10557C001BB21AE00F69002FF6D0930718BF002357
:10558C000E6808BF4B69F61B0F608B60002EEBDDBD
:10559C0033463A462846216AD4F828C0E04700280A
:1055AC0007DCB4F90C3043F040034FF0FF30A3811B
:1055BC00F8BD0744361AE9E7FEFFBFDF38B50B69C3
:1055CC0005460C4613B90025284638BD18B1036AA8
:1055DC000BB9FFF7B1F9B4F90C30002BF3D0626EB4
:1055EC00D00704D4990502D4A06DFFF79CFB284684
:1055FC002146FFF763FF636E0546DA07E4D4A389FF
:10560C009B05E1D4A06DFFF78FFBDDE770B50C4671
:10561C00B1F90E10154600291E4696B00CDAA38976
:10562C00002113F0800F14BF40234FF4806300203F
:10563C0031602B6016B070BD6A4600F049F8002846
:10564C00EDDB019901F47041A1F500535942594128
:10565C004FF48063EBE78B89F7B59D0706460C4644
:10566C0007D504F14703236023610123636103B071
:10567C00F0BD6A4601ABFFF7C9FF009F05463946EE
:10568C003046FFF7BDFB48B9B4F90C309A05EED49F
:10569C0023F0030343F00203A381E2E7A389C4E9E7
:1056AC00040743F08003A381019B20605BB130466B
:1056BC00B4F90E1000F01EF828B1A38923F00303EF
:1056CC0043F00103A381A3891D43A581CFE700000B
:1056DC0038B50023064D0446084611462B60FFF7EB
:1056EC0053F8431C02D12B6803B1236038BD00BFB3
:1056FC000803002038B50023054D044608462B60EE
:10570C00FFF751F8431C02D12B6803B1236038BD5D
:10571C000803002038B50023054D044608462B60CD
:10572C00FEF7B8FF431C02D12B6803B1236038BDD0
:10573C0008030020034610B5C9B202449342184630
:10574C0001D1002003E0047801338C42F6D110BD66
:10575C00F8B500BFF8BC08BC9E467047F8B500BF52
:08576C00F8BC08BC9E46704722
:105774005B53504920546573745D2049443A20308A
:1057840078253032580A00005B493243205465734F
:10579400745D204D656D6F727920617420307830AE
:1057A400353A203078253032580A000049324320F7
:1057B4005772697465204572723A20537461747526
:1057C400733D25642C20416464723D307825303269
:1057D400580A0000493243205265616420457272C0
:1057E4003A205374617475733D25642C20416464BC
:1057F400723D3078253032580A0000004E4F542054
:105804004F4B3A2025640A004E4F54204F4B000062
:105814004E4F54204F4B205265616400000000003D
:10582400000000000102030406070809000000004C
:105834000102030402030405060708090A0B0C0D00
:105844000E0F10100102232D302B2000686C4C0029
:10585400656667454647003031323334353637386C
:1058640039414243444546003031323334353637CA
:0C58740038396162636465660000000062
:0458800031010008EA
:045884000D0100080A
:1058880000127A0010000000010000000000000073
:1058980003000000CC0100201C00002000000000D4
:1058A800CC010020340200209C02002000000000EF
:1058B80000000000000000000000000000000000E0
:1058C80000000000000000000000000000000000D0
:1058D80000000000000000000000000000000000C0
:0858E8000000000000000000B8
:04000005080047E1C7
:00000001FF
