:020000040800F2
:10000000005000206D49000849470008514700088A
:1000100059470008614700086947000800000000D0
:100020000000000000000000000000007147000810
:100030007D47000800000000894700089547000838
:10004000B5490008B5490008B5490008B549000898
:10005000B5490008B5490008B5490008B549000888
:10006000B5490008B5490008B5490008B549000878
:10007000B5490008B5490008B5490008B549000868
:10008000B5490008B5490008B5490008B549000858
:10009000B5490008B5490008B5490008B549000848
:1000A000B5490008B5490008B5490008B549000838
:1000B000B5490008B5490008B5490008A14700083E
:1000C000B5470008B5490008B5490008B54900081A
:1000D000B5490008B5490008B5490008B549000808
:1000E000B5490008B5490008B549000800000000FE
:1000F0000000000000000000000000000000000000
:0C01000000000000000000005FF808F1A3
:10010C0010B5054C237833B9044B13B10448AFF345
:10011C0000800123237010BD680000200000000047
:10012C00E858000808B5034B1BB103490348AFF36B
:10013C00008008BD000000006C000020E85800089A
:10014C0080B400AF00BFBD4680BC704780B584B0A2
:10015C0000AF78607B68002B01D101232BE17B6819
:10016C0093F83D30DBB2002B06D17B68002283F87C
:10017C003C20786804F01EFA7B68242283F83D202A
:10018C007B681B681A687B681B6822F001021A6086
:10019C007B681B681A687B681B6842F400421A6013
:1001AC007B681B681A687B681B6822F400421A6023
:1001BC0003F064FAF8607B685B68814A934207D865
:1001CC00FB68804A934294BF01230023DBB206E014
:1001DC00FB687D4A934294BF01230023DBB2002BC2
:1001EC0001D00123E7E0FB68784AA2FB03239B0CB8
:1001FC00BB607B681B685B6823F03F017B681B68F6
:10020C00BA680A435A607B681B681B6A23F03F017B
:10021C007B685B686A4A934202D8BB68013309E089
:10022C00BB684FF4967202FB03F3694AA2FB0323EB
:10023C009B0901337A6812680B4313627B681B6855
:10024C00DB6923F44F4222F0FF027B685B685C4958
:10025C008B4219D8FB68591E7B685B685B00B1FB4D
:10026C00F3F3591C40F6FC730B40002B0AD0FB68CF
:10027C00591E7B685B685B00B1FBF3F30133C3F37E
:10028C000B0351E004234FE07B689B68002B11D1DA
:10029C00FB68581E7B6859680B465B000B44B0FB2F
:1002AC00F3F30133C3F30B03002B0CBF0123002327
:1002BC00DBB212E0FB68581E7B6859680B469B004A
:1002CC000B4499000B44B0FBF3F30133C3F30B0362
:1002DC00002B0CBF01230023DBB2002B01D0012328
:1002EC0022E07B689B68002B0ED1FB68581E7B6854
:1002FC0059680B465B000B44B0FBF3F30133C3F3BB
:10030C000B0343F400430FE0FB68581E7B685968ED
:10031C000B469B000B4499000B44B0FBF3F30133E9
:10032C00C3F30B0343F44043796809681343CB616F
:10033C007B681B681B6823F0C0017B68DA697B68EB
:10034C001B6A1A437B681B680A431A607B681B682C
:10035C009B6823F4034323F0FF037A6811697A68DE
:10036C00D26811437A6812680B4393607B681B68F0
:10037C00DB6823F0FF017B685A697B689B691A4331
:10038C007B681B680A43DA607B681B681A687B68A9
:10039C001B6842F001021A607B6800221A647B68B9
:1003AC00202283F83D207B6800221A637B680022A0
:1003BC0083F83E20002318461037BD4680BD00BF91
:1003CC00A08601007F841E00FF083D0083DE1B43D6
:1003DC00D34D621080B483B000AF78607B681B682B
:1003EC005B6903F08003802B03D17B681B680022C0
:1003FC001A6100BF0C37BD4680BC704780B588B011
:10040C0002AFF8607A601A460B467B8113463B813B
:10041C0002F03CFD7861FB6893F83D30DBB2202B99
:10042C0040F0E0807B690093192301227049F86841
:10043C0002F052FA0346002B01D00223D3E0FB68F2
:10044C0093F83C30012B01D10223CCE0FB68012254
:10045C0083F83C20FB681B681B6803F00103012B2D
:10046C0007D0FB681B681A68FB681B6842F0010226
:10047C001A60FB681B681A68FB681B6822F4006230
:10048C001A60FB68212283F83D20FB68102283F858
:10049C003E20FB6800221A64FB687A685A62FB688B
:1004AC003A895A85FB685B8D9AB2FB681A85FB68A2
:1004BC00504ADA6279897B693A6AF86802F014F872
:1004CC000346002B01D001238DE000233B61FB6828
:1004DC001B685B693B61FB681B689B693B613B6903
:1004EC0066E07A69396AF86802F010FB0346002B63
:1004FC000DD0FB681B6C042B07D1FB681B681A68BA
:10050C00FB681B6842F400721A6001236BE0FB6805
:10051C005B6A1A78FB681B681A61FB685B6A5A1C79
:10052C00FB685A62FB685B8D9BB2013B9AB2FB681D
:10053C005A85FB681B8D013B9AB2FB681A85FB68D8
:10054C001B685B6903F00403042B1BD1FB681B8D38
:10055C00002B17D0FB685B6A1A78FB681B681A6162
:10056C00FB685B6A5A1CFB685A62FB685B8D9BB22A
:10057C00013B9AB2FB685A85FB681B8D013B9AB212
:10058C00FB681A857A69396AF86802F007FB03463A
:10059C00002B0DD0FB681B6C042B07D1FB681B6870
:1005AC001A68FB681B6842F400721A6001231AE097
:1005BC00FB681B8D002B94D1FB681B681A68FB68C9
:1005CC001B6842F400721A60FB68202283F83D20FD
:1005DC00FB68002283F83E20FB68002283F83C2055
:1005EC00002300E0022318461837BD4680BD00BF2B
:1005FC00020010000000FFFF80B58CB002AFF86065
:10060C007A601A460B467B8113463B8100233B6282
:10061C0002F03CFC7862FB6893F83D30DBB2202B97
:10062C0040F04B827B6A0093192301227F49F868C2
:10063C0002F052F90346002B01D002233EE2FB6884
:10064C0093F83C30012B01D1022337E2FB680122E5
:10065C0083F83C20FB681B681B6803F00103012B2B
:10066C0007D0FB681B681A68FB681B6842F0010224
:10067C001A60FB681B681A68FB681B6822F400622E
:10068C001A60FB68222283F83D20FB68102283F855
:10069C003E20FB6800221A64FB687A685A62FB6889
:1006AC003A895A85FB685B8D9AB2FB681A85FB68A0
:1006BC005F4ADA6279897B6A3A6BF86801F096FFD7
:1006CC000346002B01D00123F8E1FB681B8D002BA6
:1006DC0013D10023FB61FB681B685B69FB61FB6842
:1006EC001B689B69FB61FB69FB681B681A68FB68EC
:1006FC001B6842F400721A60CCE1FB681B8D012B65
:10070C001ED1FB681B681A68FB681B6822F48062A8
:10071C001A6072B600BF0023BB61FB681B685B6983
:10072C00BB61FB681B689B69BB61BB69FB681B6891
:10073C001A68FB681B6842F400721A6062B635E0F6
:10074C00FB681B8D022B1ED1FB681B681A68FB68AB
:10075C001B6842F400621A6072B600BF00237B6112
:10076C00FB681B685B697B61FB681B689B697B6131
:10077C007B69FB681B681A68FB681B6822F4806243
:10078C001A6062B612E0FB681B681A68FB681B688B
:10079C0042F480621A6000233B61FB681B685B6952
:1007AC003B61FB681B689B693B613B6972E1FB68C1
:1007BC001B8D032B00F21F81FB681B8D012B23D19A
:1007CC007A6A396BF86802F063FA0346002B01D0A1
:1007DC00012373E1FB681B681A69FB685B6AD2B280
:1007EC001A70FB685B6A5A1CFB685A62FB681B8DAB
:1007FC00013B9AB2FB681A85FB685B8D9BB2013B8F
:10080C009AB2FB685A8545E1FB681B8D022B52D1CD
:10081C007B6A00933B6B00220649F86802F05CF897
:10082C000346002B08D0012348E100BF0200100052
:10083C000000FFFF0400010072B600BFFB681B68DC
:10084C001A68FB681B6842F400721A60FB681B682C
:10085C001A69FB685B6AD2B21A70FB685B6A5A1C35
:10086C00FB685A62FB681B8D013B9AB2FB681A85C8
:10087C00FB685B8D9BB2013B9AB2FB685A8562B6F2
:10088C0000BFFB681B681A69FB685B6AD2B21A70FE
:10089C00FB685B6A5A1CFB685A62FB681B8D013B48
:1008AC009AB2FB681A85FB685B8D9BB2013B9AB2CE
:1008BC00FB685A85EEE07B6A00933B6B0022814912
:1008CC00F86802F009F80346002B01D00123F5E08B
:1008DC00FB681B681A68FB681B6822F480621A604C
:1008EC0072B600BFFB681B681A69FB685B6AD2B200
:1008FC001A70FB685B6A5A1CFB685A62FB681B8D9A
:10090C00013B9AB2FB681A85FB685B8D9BB2013B7D
:10091C009AB2FB685A856C4B1B68DB086B4AA2FBCE
:10092C0003231A0A13469B001344DA00D31A3B62C2
:10093C003B6A013B3B623B6A002B18D1FB680022EF
:10094C001A63FB68202283F83D20FB68002283F8A1
:10095C003E20FB681B6C43F02002FB681A6462B6F5
:10096C0000BFFB68002283F83C200123A6E0FB6853
:10097C001B685B6903F00403042BD9D1FB681B686B
:10098C001A68FB681B6842F400721A60FB681B68EB
:10099C001A69FB685B6AD2B21A70FB685B6A5A1CF4
:1009AC00FB685A62FB681B8D013B9AB2FB681A8587
:1009BC00FB685B8D9BB2013B9AB2FB685A8562B6B1
:1009CC0000BFFB681B681A69FB685B6AD2B21A70BD
:1009DC00FB685B6A5A1CFB685A62FB681B8D013B07
:1009EC009AB2FB681A85FB685B8D9BB2013B9AB28D
:1009FC00FB685A854EE07A6A396BF86802F048F960
:100A0C000346002B01D0012358E0FB681B681A69D0
:100A1C00FB685B6AD2B21A70FB685B6A5A1CFB6893
:100A2C005A62FB681B8D013B9AB2FB681A85FB6806
:100A3C005B8D9BB2013B9AB2FB685A85FB681B68C5
:100A4C005B6903F00403042B24D1FB681B8D032B7F
:100A5C0007D1FB681B681A68FB681B6822F480626C
:100A6C001A60FB681B681A69FB685B6AD2B21A7061
:100A7C00FB685B6A5A1CFB685A62FB681B8D013B66
:100A8C009AB2FB681A85FB685B8D9BB2013B9AB2EC
:100A9C00FB685A85FB681B8D002B7FF488AEFB68C6
:100AAC00202283F83D20FB68002283F83E20FB685F
:100ABC00002283F83C20002300E00223184628374C
:100ACC00BD4680BD040001000000002089B5F8146B
:100ADC0080B487B000AFF8607A601A460B467B8111
:100AEC0013463B8100237B61FB6893F83D30DBB2FE
:100AFC00202B40F08180434B1B68DB08424AA2FB51
:100B0C0003231A0A13469B0013449A0013447B6177
:100B1C007B69013B7B617B69002B12D1FB68002256
:100B2C001A63FB68202283F83D20FB68002283F8BF
:100B3C003E20FB681B6C43F02002FB681A64022306
:100B4C005BE0FB681B689B6903F00203022BDFD0A0
:100B5C00FB6893F83C30012B01D102234DE0FB687C
:100B6C00012283F83C20FB681B681B6803F001031F
:100B7C00012B07D0FB681B681A68FB681B6842F0E6
:100B8C0001021A60FB681B681A68FB681B6822F478
:100B9C0000621A60FB68212283F83D20FB6810225A
:100BAC0083F83E20FB6800221A64FB687A685A625C
:100BBC00FB683A895A85FB685B8D9AB2FB681A858B
:100BCC00FB68124ADA627A89FB685A64FB68002275
:100BDC0083F83C20FB681B685A68FB681B6842F46E
:100BEC00E0625A60FB681B681A68FB681B6842F479
:100BFC0080721A60002300E0022318461C37BD46A1
:100C0C0080BC70470000002089B5F8140000FFFF7D
:100C1C0080B487B000AFF8607A601A460B467B81CF
:100C2C0013463B8100237B61FB6893F83D30DBB2BC
:100C3C00202B40F08980474B1B68DB08464AA2FBFF
:100C4C0003231A0A13469B0013449A0013447B6136
:100C5C007B69013B7B617B69002B12D1FB68002215
:100C6C001A63FB68202283F83D20FB68002283F87E
:100C7C003E20FB681B6C43F02002FB681A640223C5
:100C8C0063E0FB681B689B6903F00203022BDFD057
:100C9C00FB6893F83C30012B01D1022355E0FB6833
:100CAC00012283F83C20FB681B681B6803F00103DE
:100CBC00012B07D0FB681B681A68FB681B6842F0A5
:100CCC0001021A60FB681B681A68FB681B6822F437
:100CDC0000621A60FB68222283F83D20FB68102218
:100CEC0083F83E20FB6800221A64FB687A685A621B
:100CFC00FB683A895A85FB685B8D9AB2FB681A854A
:100D0C00FB68164ADA627A89FB685A64FB6800222F
:100D1C0083F83C20FB681B685A68FB681B6842F42C
:100D2C00E0625A60FB681B681A68FB681B6842F437
:100D3C0080621A60FB681B681A68FB681B6842F4C7
:100D4C0080721A60002300E0022318461C37BD464F
:100D5C0080BC70470000002089B5F8140000FFFF2C
:100D6C0080B588B000AF78600023BB617B681B68DE
:100D7C005B687B617B68DB6A3B617B6893F83E3028
:100D8C00FB737B6893F83D30BB73FB7B102B03D05C
:100D9C00FB7B402B40F0B1807B681B689B69BB617F
:100DAC007B681B685B69FB61FB6903F00103002B2B
:100DBC000DD13B69B3F52A0F03D03B69B3F12A4F30
:100DCC0001D1012300E00023012B00F01481FB6909
:100DDC0003F00103002B0BD07B6903F40073002B91
:100DEC0006D0786801F0DFFF786800F059FD83E0E9
:100DFC00FB6903F00803002B08D07B6903F4007334
:100E0C00002B03D0786800F0D0FD75E0FB6903F08F
:100E1C000203002B08D07B6903F40073002B03D072
:100E2C00786800F0EBFD67E0BB6903F00403002B6E
:100E3C0036D07B681B685B6803F40063B3F5006F06
:100E4C0000F0DB80FB6903F08003002B0DD07B6985
:100E5C0003F48063002B08D0FB6903F00403002B20
:100E6C0003D1786800F0B9F946E0FB6903F004039C
:100E7C00002B00F0C2807B6903F40073002B00F0A0
:100E8C00BC80BB7B212B03D1786800F042FAB4E024
:100E9C00FB7B402B40F0B180786800F0B0FAACE0FE
:100EAC007B681B685B6803F40063B3F5006F00F0AC
:100EBC00A480FB6903F04003002B0DD07B6903F485
:100ECC008063002B08D0FB6903F00403002B03D1D3
:100EDC00786800F02CFB0FE0FB6903F00403002B97
:100EEC0000F08B807B6903F40073002B00F085808D
:100EFC00786800F0E4FB80E07FE07B681B6C002BE3
:100F0C0004D07B681B685B69FB6107E07B681B682E
:100F1C009B69BB617B681B685B69FB61FB6903F0C8
:100F2C000203002B11D07B6903F40073002B0CD04F
:100F3C007B681B6C002B03D07B681B689B69BB61B7
:100F4C00B969786800F0B1FF5AE0FB6903F010034F
:100F5C00002B08D07B6903F40073002B03D0786856
:100F6C0000F0ECFF4CE0BB7B212B02D0BB7B292B90
:100F7C0020D1FB6903F08003002B0DD07B6903F4B7
:100F8C008063002B08D0FB6903F00403002B03D112
:100F9C00786800F0CEFE32E0FB6903F00403002B0E
:100FAC002DD07B6903F40073002B28D0786800F0F7
:100FBC00FDFE24E0FB6903F04003002B0DD07B69A0
:100FCC0003F48063002B08D0FB6903F00403002BAF
:100FDC0003D1786800F00AFF12E0FB6903F0040308
:100FEC00002B0DD07B6903F40073002B08D07868BC
:100FFC0000F03AFF04E000BF02E000BF00E000BFD9
:10100C002037BD4680BD80B58AB000AF78607B6864
:10101C001B685B693B627B681B685B68FB61002338
:10102C007B627B6893F83E30FB763B6A03F48073FB
:10103C00002B15D0FB6903F48073002B10D07B6A56
:10104C0043F001037B627B681B686FF480725A610A
:10105C007B681B681A687B681B6842F400421A6044
:10106C003B6A03F40073002B0DD0FB6903F480730F
:10107C00002B08D07B6A43F002037B627B681B6801
:10108C006FF400725A613B6A03F48063002B3ED00C
:10109C00FB6903F48073002B39D0FB7EBB767B6835
:1010AC005B8D9BB27B617B6893F83D30FB747B68F6
:1010BC001B6BFB60BB7E202B12D17B69002B0FD1ED
:1010CC00FB7C212B08D0FB7C292B05D0FB7C282B0F
:1010DC0006D1FB68212B03D1786801F05FF816E08C
:1010EC007B681B686FF480625A617B6A43F004036F
:1010FC007B62FB7E102B02D0FB7E402B07D17B68E2
:10110C001B681A687B681B6842F400721A603B6AA1
:10111C0003F40063002B0DD0FB6903F48073002BE8
:10112C0008D07B6A43F008037B627B681B686FF412
:10113C0000625A617B6A002B08D07B681A6C7B6A50
:10114C001A437B681A64786801F09CF800BF283752
:10115C00BD4680BD80B483B000AF786000BF0C3753
:10116C00BD4680BC704780B483B000AF786000BFD0
:10117C000C37BD4680BC704780B483B000AF78603C
:10118C000B46FB7013463B8000BF0C37BD4680BC42
:10119C00704780B483B000AF786000BF0C37BD4699
:1011AC0080BC704780B483B000AF786000BF0C3750
:1011BC00BD4680BC704780B483B000AF786000BF80
:1011CC000C37BD4680BC704780B483B000AF7860EC
:1011DC0000BF0C37BD4680BC704780B584B000AFF3
:1011EC0078607B6893F83D30FB737B6893F83E30F6
:1011FC00BB737B68DB6ABB607B681B8D002B50D19B
:10120C00FB7B212B4DD1BB68082B1DD0BB68202B41
:10121C001AD0BB6813F5803F16D07B681B685A68E0
:10122C007B681B6822F4E0625A607B6811221A63A7
:10123C007B68002283F83E207B68202283F83D20C7
:10124C00786803F0EBF860E07B681B685A687B6891
:10125C001B6822F4E0625A607B681B681A687B6822
:10126C001B6842F400721A607B6800221A637B6868
:10127C00202283F83D207B6893F83E30DBB2402B74
:10128C0007D17B68002283F83E207868FFF78AFF3D
:10129C003BE07B68002283F83E20786803F0BEF8C0
:1012AC0033E0FB7B212B05D0BB7B402B2DD1FB7B73
:1012BC00222B2AD17B685B8D9BB2002B08D17B68DB
:1012CC001B685A687B681B6822F480625A601CE0B9
:1012DC007B6893F83E30DBB2402B03D1786800F08A
:1012EC008EF812E07B685B6A1A787B681B681A615F
:1012FC007B685B6A5A1C7B685A627B685B8D9BB20D
:10130C00013B9AB27B685A85FFE700BF1037BD4698
:10131C0080BD80B584B000AF78607B68DB6AFB6011
:10132C007B6893F83D30DBB2212B64D17B685B8DFD
:10133C009BB2002B12D07B685B6A1A787B681B68A7
:10134C001A617B685B6A5A1C7B685A627B685B8D8E
:10135C009BB2013B9AB27B685A854CE0FB68082B28
:10136C001DD0FB68202B1AD0FB6813F5803F16D0DC
:10137C007B681B685A687B681B6822F4E0625A60C1
:10138C007B6811221A637B68002283F83E207B68FD
:10139C00202283F83D20786803F040F82BE07B682E
:1013AC001B685A687B681B6822F4E0625A607B6891
:1013BC001B681A687B681B6842F400721A607B68B1
:1013CC0000221A637B68202283F83D207B6893F807
:1013DC003E30DBB2402B07D17B68002283F83E20E5
:1013EC007868FFF7DFFE06E07B68002283F83E207A
:1013FC00786803F013F800BF1037BD4680BD80B588
:10140C0084B000AF78607B6893F83D30FB737B68E9
:10141C001B6D002B1DD17B68DB6C012B0BD17B680A
:10142C009B6CDAB27B681B681A617B681B6D9A1C1B
:10143C007B681A6577E07B689B6C9BB21B12DAB2F7
:10144C007B681B681A617B681B6D5A1C7B681A656C
:10145C0069E07B681B6D012B0BD17B689B6CDAB24E
:10146C007B681B681A617B681B6D5A1C7B681A654C
:10147C0059E07B681B6D022B52D1FB7B222B0DD1CB
:10148C007B681B681A687B681B6842F480721A6060
:10149C007B681B6D5A1C7B681A6544E07B685B8D0E
:1014AC009BB2002B15D0FB7B212B12D17B685B6A86
:1014BC001A787B681B681A617B685B6A5A1C7B68AC
:1014CC005A627B685B8D9BB2013B9AB27B685A85F2
:1014DC0029E07B685B8D9BB2002B24D1FB7B212BFD
:1014EC0021D17B681B685A687B681B6822F4E06218
:1014FC005A607B681B681A687B681B6842F4007230
:10150C001A607B6800221A637B68202283F83D20D6
:10151C007B68002283F83E207868FFF743FE02E0E8
:10152C007868FEF757FF00BF1037BD4680BD80B509
:10153C0084B000AF78607B6893F83D30DBB2222B2F
:10154C0040F0B9807B68DB6AFB607B685B8D9BB28B
:10155C00BB60BB68032B21D97B681B681A697B684D
:10156C005B6AD2B21A707B685B6A5A1C7B685A62DF
:10157C007B685B8D9BB2013B9AB27B685A857B681A
:10158C005B8D9BB2032B40F096807B681B685A687E
:10159C007B681B6822F480625A608CE07B68DB6A93
:1015AC00022B7FD0BB68012B02D0BB68002B79D1FA
:1015BC00786801F03BFB0346002B4CD17B681B6821
:1015CC001A687B681B6822F480621A607B681B684F
:1015DC005A687B681B6822F4E0625A607B681B685F
:1015EC001A697B685B6AD2B21A707B685B6A5A1C98
:1015FC007B685A627B685B8D9BB2013B9AB27B68BD
:10160C005A857B68202283F83D207B6893F83E3016
:10161C00DBB2402B0AD17B68002283F83E207B682A
:10162C0000221A637868FFF7C6FD44E07B6800224D
:10163C0083F83E20FB68082B02D0FB68202B03D1DB
:10164C007B6800221A6302E07B6812221A637868B6
:10165C0002F0FAFE2FE07B681B685A687B681B68F7
:10166C0022F4E0625A607B681B681A697B685B6ACB
:10167C00D2B21A707B685B6A5A1C7B685A627B68B0
:10168C005B8D9BB2013B9AB27B685A857B682022AA
:10169C0083F83D207B68002283F83E20786802F0B6
:1016AC00E9FE08E07B681B685A687B681B6822F4BB
:1016BC0080625A60FFE700BF1037BD4680BD80B521
:1016CC0084B000AF78607B68DB6AFB607B685B8D05
:1016DC009BB2042B1BD17B681B685A687B681B6808
:1016EC0022F480625A607B681B681A697B685B6AAB
:1016FC00D2B21A707B685B6A5A1C7B685A627B6830
:10170C005B8D9BB2013B9AB27B685A85C4E07B68C7
:10171C005B8D9BB2032B29D17B681B685A687B6855
:10172C001B6822F480625A60FB68042B0AD0FB68A9
:10173C00022B07D07B681B681A687B681B6822F435
:10174C0080621A607B681B681A697B685B6AD2B21C
:10175C001A707B685B6A5A1C7B685A627B685B8D6B
:10176C009BB2013B9AB27B685A8595E07B685B8D96
:10177C009BB2022B7DD1FB68012B02D0FB68102B96
:10178C0008D17B681B681A687B681B6822F480622E
:10179C001A6016E0FB68042B02D0FB68022B08D100
:1017AC007B681B681A687B681B6842F480621A604D
:1017BC0007E07B681B681A687B681B6842F4007240
:1017CC001A607B681B681A697B685B6AD2B21A70F4
:1017DC007B685B6A5A1C7B685A627B685B8D9BB228
:1017EC00013B9AB27B685A857B681B681A697B68D7
:1017FC005B6AD2B21A707B685B6A5A1C7B685A624D
:10180C007B685B8D9BB2013B9AB27B685A857B6887
:10181C001B685A687B681B6822F440725A607B68AC
:10182C00202283F83D207B6893F83E30DBB2402BBE
:10183C000AD17B68002283F83E207B6800221A6361
:10184C007868FFF7B8FC27E07B68002283F83E201D
:10185C00FB68082B02D0FB68202B03D17B6800228D
:10186C001A6302E07B6812221A63786802F0ECFDBE
:10187C0012E07B681B681A697B685B6AD2B21A70CB
:10188C007B685B6A5A1C7B685A627B685B8D9BB277
:10189C00013B9AB27B685A8500BF1037BD4680BDAC
:1018AC0080B483B000AF78607B6893F83E30DBB2D5
:1018BC00402B17D17B681B6D002B09D17B685B6CAF
:1018CC00DBB21A467B681B6802F0FE021A6167E005
:1018DC007B685B6CDBB243F00103DAB27B681B689C
:1018EC001A615DE07B681B69B3F5804F33D17B686F
:1018FC0093F83D30DBB2212B09D17B685B6CDBB2FA
:10190C001A467B681B6802F0FE021A6108E07B68CD
:10191C005B6CDBB243F00103DAB27B681B681A61C3
:10192C007B685B6B002B04D07B685B6B9B6A002B2A
:10193C0008D17B689B6B002B32D07B689B6B9B6ABE
:10194C00002B2DD07B681B685A687B681B6842F49F
:10195C0000625A6024E07B681B6D002B0ED17B6803
:10196C005B6C9BB2DB11DBB203F00603DBB263F002
:10197C000F03DAB27B681B681A6111E07B681B6D80
:10198C00012B0DD17B685B6C9BB2DB11DBB203F0DE
:10199C000603DBB263F00E03DAB27B681B681A61D4
:1019AC0000BF0C37BD4680BC704780B483B000AF1D
:1019BC0078607B685B6CDAB27B681B681A617B6849
:1019CC005B6B002B04D07B685B6B9B6A002B08D194
:1019DC007B689B6B002B0CD07B689B6B9B6A002BF2
:1019EC0007D07B681B685A687B681B6842F40062EE
:1019FC005A6000BF0C37BD4680BC704780B491B0B4
:101A0C0000AF78607B6893F83E3087F83F307B6896
:101A1C00DB6ABB637B681B6B7B637B6893F83D3035
:101A2C00DBB2222B40F074817B681B6D002B0FD135
:101A3C0097F83F30402B0BD100233B637B681B682E
:101A4C005B693B637B681B689B693B633B6B6BE12E
:101A5C007B681B6D002B1DD17B681B69B3F5404F58
:101A6C0018D10023FB627B681B685B69FB627B6897
:101A7C001B689B69FB62FB6A7B681B681A687B6846
:101A8C001B6842F480721A607B681B6D5A1C7B6861
:101A9C001A6549E17B685B8D9BB2002B13D1002347
:101AAC00BB627B681B685B69BB627B681B689B695C
:101ABC00BB62BB6A7B681B681A687B681B6842F454
:101ACC0000721A6020E17B685B8D9BB2012B40F0A9
:101ADC008A80BB6B13F5803F37D17B681B681A6813
:101AEC007B681B6822F480621A607B681B685B68E9
:101AFC0003F40063B3F5006F13D17B681B681A689D
:101B0C007B681B6822F480621A6000237B627B680E
:101B1C001B685B697B627B681B689B697B627B6A69
:101B2C00F2E000233B627B681B685B693B627B686D
:101B3C001B689B693B623B6A7B681B681A687B6805
:101B4C001B6842F400721A60DEE0BB6B082B2ED0CF
:101B5C00BB6B202B2BD07B6B122B02D1BB6B012BC5
:101B6C0025D1BB6B042B0ED0BB6B022B0BD0BB6BEC
:101B7C00102B08D07B681B681A687B681B6822F4E2
:101B8C0080621A6007E07B681B681A687B681B68B8
:101B9C0042F480621A600023FB617B681B685B69FE
:101BAC00FB617B681B689B69FB61FB69ACE07B6834
:101BBC001B681A687B681B6822F480621A60002319
:101BCC00BB617B681B685B69BB617B681B689B693D
:101BDC00BB61BB697B681B681A687B681B6842F435
:101BEC0000721A6090E07B685B8D9BB2022B58D11F
:101BFC00BB6B042B21D0BB6B022B1ED0BB6B102BF1
:101C0C001BD07B681B681A687B681B6842F40062F7
:101C1C001A6000237B617B681B685B697B617B6856
:101C2C001B689B697B617B697B681B681A687B6896
:101C3C001B6822F480621A6012E07B681B681A68C9
:101C4C007B681B6842F480621A6000233B617B68EE
:101C5C001B685B693B617B681B689B693B613B69EB
:101C6C007B681B685B6803F40063B3F5006F4BD1B2
:101C7C00BB6B13F5803F0BD0BB6B012B08D0BB6B40
:101C8C00082B05D0BB6B102B02D0BB6B202B3BD190
:101C9C007B681B685A687B681B6842F480525A60E8
:101CAC0032E07B681B681A687B681B6842F48062B0
:101CBC001A607B681B685B6803F40063B3F5006F04
:101CCC0017D1BB6B13F5803F0BD0BB6B012B08D02E
:101CDC00BB6B082B05D0BB6B102B02D0BB6B202B26
:101CEC0007D17B681B685A687B681B6842F480527A
:101CFC005A600023FB607B681B685B69FB607B6838
:101D0C001B689B69FB60FB687B6800221A650BE013
:101D1C000023BB607B681B685B69BB607B681B68CE
:101D2C009B69BB60BB68FFE700BF4437BD4680BC06
:101D3C00704780B584B000AF78607B6893F83D3015
:101D4C00FB737B685B8D9BB2002B2BD07B685B6A33
:101D5C001A787B681B681A617B685B6A5A1C7B6803
:101D6C005A627B685B8D9BB2013B9AB27B685A8549
:101D7C007B685B8D9BB2002B14D1FB7B292B11D183
:101D8C007B681B685A687B681B6822F480625A6007
:101D9C007B6821221A637B68282283F83D207868AF
:101DAC00FFF7D8F900BF1037BD4680BD80B483B0B3
:101DBC0000AF78607B685B8D9BB2002B11D07B6889
:101DCC005B6A1A787B681B681A617B685B6A5A1CB1
:101DDC007B685A627B685B8D9BB2013B9AB27B68D5
:101DEC005A8500BF0C37BD4680BC704780B584B0A7
:101DFC0000AF78607B6893F83D30FB737B685B8D3C
:101E0C009BB2002B2CD07B681B681A697B685B6AC1
:101E1C00D2B21A707B685B6A5A1C7B685A627B6808
:101E2C005B8D9BB2013B9AB27B685A857B685B8D5C
:101E3C009BB2002B14D1FB7B2A2B11D17B681B6826
:101E4C005A687B681B6822F480625A607B68222285
:101E5C001A637B68282283F83D207868FFF783F9A2
:101E6C0000BF1037BD4680BD80B483B000AF786032
:101E7C007B685B8D9BB2002B12D07B681B681A6948
:101E8C007B685B6AD2B21A707B685B6A5A1C7B688F
:101E9C005A627B685B8D9BB2013B9AB27B685A8518
:101EAC0000BF0C37BD4680BC704780B584B000AF16
:101EBC00786039600023FB737B6893F83D30DBB2AC
:101ECC0003F02803282B25D17B681B685A687B6894
:101EDC001B6822F480625A603B6803F00403002BF9
:101EEC0001D10123FB733B6803F08003002B03D16A
:101EFC007B68DB68BB8102E07B689B69BB817B688C
:101F0C00002283F83C20BA89FB7B19467868FFF7DE
:101F1C0033F90EE00023BB607B681B685B69BB6018
:101F2C007B681B689B69BB60BB687B68002283F87D
:101F3C003C2000BF1037BD4680BD000080B584B08A
:101F4C0000AF78607B6893F83D30FB737B681B684F
:101F5C005A687B681B6822F4E0625A600023BB60FD
:101F6C007B681B685B69BB607B681B681A687B6855
:101F7C001B6842F001021A60BB687B681B681A6818
:101F8C007B681B6822F480621A607B681B685B6844
:101F9C0003F40063B3F5006F72D1FB7B222B02D0EC
:101FAC00FB7B2A2B35D17B689B6B1B685B689AB2D9
:101FBC007B685A857B685B8D9BB2002B05D07B6858
:101FCC001B6C43F004027B681A647B681B685A68BC
:101FDC007B681B6822F400625A607B689B6B184616
:101FEC0001F0A6FD0346012B49D07B689B6B694A27
:101FFC005A637B689B6B184601F022FD0346002B4D
:10200C003DD07B689B6B5B6B7A68926B10469847F4
:10201C0035E07B685B6B1B685B689AB27B685A85A2
:10202C007B685B8D9BB2002B05D07B681B6C43F0EF
:10203C0004027B681A647B681B685A687B681B689F
:10204C0022F400625A607B685B6B184601F070FDED
:10205C000346012B14D07B685B6B4E4A5A637B683A
:10206C005B6B184601F0ECFC0346002B08D07B6838
:10207C005B6B5B6B7A68526B1046984700E000BF55
:10208C007B685B8D9BB2002B3ED07B681B685B69C9
:10209C0003F00403042B12D17B681B681A697B685C
:1020AC005B6AD2B21A707B685B6A5A1C7B685A6294
:1020BC007B685B8D9BB2013B9AB27B685A857B68CF
:1020CC001B685B6903F04003402B12D17B681B68D3
:1020DC001A697B685B6AD2B21A707B685B6A5A1C9D
:1020EC007B685A627B685B8D9BB2013B9AB27B68C2
:1020FC005A857B685B8D9BB2002B05D07B681B6C73
:10210C0043F004027B681A647B681B6C002B03D0C1
:10211C00786800F0B7F839E0FB7B2A2B09D17B6893
:10212C0000221A637B68282283F83D207868FFF729
:10213C001AF87B6893F83D30DBB2282B11D17B6801
:10214C00154ADA627B6800221A637B68202283F8C6
:10215C003D207B68002283F83E207868FFF719F851
:10216C0014E07B681B6B222B02D0FB7B222B0DD146
:10217C007B6800221A637B68202283F83D207B68F1
:10218C00002283F83E207868FEF7EDFF00BF103781
:10219C00BD4680BD952700080000FFFF80B584B0C8
:1021AC0000AF78607B6893F83D30FB737B68DB6A2B
:1021BC00BB60BB68082B02D0BB68202B29D1FB7BF2
:1021CC00282B26D17B682E4ADA627B681B685A68FA
:1021DC007B681B6822F4E0625A607B681B686FF4B2
:1021EC0080625A617B681B681A687B681B6822F4E2
:1021FC0080621A607B6800221A637B68202283F855
:10220C003D207B68002283F83E207868FEF7C1FFF2
:10221C0031E0FB7B212B29D17B68194ADA627B6880
:10222C0021221A637B68202283F83D207B680022E0
:10223C0083F83E207B681B685A687B681B6822F415
:10224C00E0625A607B681B686FF480625A617B683D
:10225C001B681A687B681B6822F480621A607868B5
:10226C00FEF7B8F87868FEF775FF04E07B681B682A
:10227C006FF480625A6100BF1037BD4680BD00BF4D
:10228C000000FFFF80B584B000AF78607B6893F8E6
:10229C003D30FB737B6893F83E30BB73BB7B102BDC
:1022AC0002D0BB7B402B0AD1FB7B222B07D17B6856
:1022BC001B681A687B681B6822F400621A60FB7B3F
:1022CC0003F02803282B07D17B6800221A637B6854
:1022DC00282283F83D2015E07B681B685B6803F4BB
:1022EC000063B3F5006F0AD0FB7B602B07D07B68D3
:1022FC00202283F83D207B68002283F83E207B68F7
:10230C0000221A637B681B685B6803F40063B3F5F7
:10231C00006F62D17B681B685A687B681B6822F46B
:10232C0000625A607B685B6B93F82130DBB2012B47
:10233C0020D07B685B6B6A4A5A637B685B6B184680
:10234C0001F07EFB0346002B00F089807B681B6844
:10235C001A687B681B6822F001021A607B682022D5
:10236C0083F83D207B685B6B5B6B7A68526B104625
:10237C00984774E07B689B6B594A5A637B689B6BEC
:10238C00184601F05DFB0346002B68D07B681B6888
:10239C005B6903F04003402B0BD17B681B681A6907
:1023AC007B685B6AD2B21A707B685B6A5A1C7B686A
:1023BC005A627B681B681A687B681B6822F00102F2
:1023CC001A607B68202283F83D207B689B6B5B6BDB
:1023DC007A68926B1046984741E07B6893F83D30E1
:1023EC00DBB2602B25D17B68202283F83D207B68F3
:1023FC0000221A647B681B685B6903F04003402B66
:10240C000BD17B681B681A697B685B6AD2B21A7045
:10241C007B685B6A5A1C7B685A627B681B681A680B
:10242C007B681B6822F001021A607868FEF7CCFE0C
:10243C0015E07B681B685B6903F04003402B0BD1F4
:10244C007B681B681A697B685B6AD2B21A707B68FE
:10245C005B6A5A1C7B685A62786802F00BF87B68DE
:10246C001B6CBB60BB6803F00103002B0ED1BB6877
:10247C0003F00203002B09D1BB6803F00403002B0B
:10248C0004D1BB6803F00803002B07D07B681B68E2
:10249C005A687B681B6822F4E0625A607B6893F888
:1024AC003D30FB737B681B6C03F00403042B13D1CE
:1024BC00FB7B282B10D17B680A4ADA627B680022EE
:1024CC001A637B68202283F83D207B68002283F806
:1024DC003E207868FEF75DFE00BF1037BD4680BD1C
:1024EC00952700080000FFFF80B588B002AFF860A8
:1024FC007A603B600B467B81FB68DB6A7B617B69A6
:10250C00082B06D07B69012B03D07B6913F5803F28
:10251C0008D1FB681B681A68FB681B6842F4807260
:10252C001A600BE0FB681B6B122B07D1FB681B6856
:10253C001A68FB681B6842F480721A603B6800934F
:10254C007B6800224FF00111F86800F0C5F90346D2
:10255C00002B0DD0FB681B681B6803F48073B3F56C
:10256C00807F03D1FB684FF400721A64032335E0BB
:10257C00FB681B69B3F5804F08D17B89DBB21A4627
:10258C00FB681B6802F0FE021A611BE07B89DB1101
:10259C00DBB203F00603DBB263F00F03DAB2FB68C5
:1025AC001B681A613B687A680E49F86800F00EFAED
:1025BC000346002B01D0012310E07B89DAB2FB68C3
:1025CC001B681A613B687A680749F86800F0FEF9E5
:1025DC000346002B01D0012300E0002318461837D6
:1025EC00BD4680BD080001000200010080B588B026
:1025FC0002AFF8607A603B600B467B81FB68DB6A5C
:10260C007B61FB681B681A68FB681B6842F480627C
:10261C001A607B69082B06D07B69012B03D07B6980
:10262C0013F5803F08D1FB681B681A68FB681B68B0
:10263C0042F480721A600BE0FB681B6B112B07D104
:10264C00FB681B681A68FB681B6842F480721A608E
:10265C003B6800937B6800224FF00111F86800F092
:10266C003BF90346002B0DD0FB681B681B6803F479
:10267C008073B3F5807F03D1FB684FF400721A644A
:10268C00032379E0FB681B69B3F5804F08D17B8984
:10269C00DBB243F00103DAB2FB681B681A615FE03E
:1026AC007B89DB11DBB203F00603DBB263F00F03B3
:1026BC00DAB2FB681B681A613B687A683049F868C3
:1026CC0000F084F90346002B01D0012354E07B89F0
:1026DC00DAB2FB681B681A613B687A682949F868AA
:1026EC0000F074F90346002B01D0012344E00023D1
:1026FC003B61FB681B685B693B61FB681B689B6902
:10270C003B613B69FB681B681A68FB681B6842F4F9
:10271C0080721A603B6800937B6800224FF00111B5
:10272C00F86800F0D9F80346002B0DD0FB681B6845
:10273C001B6803F48073B3F5807F03D1FB684FF4FF
:10274C0000721A64032317E07B89DB11DBB203F000
:10275C000603DBB263F00E03DAB2FB681B681A6186
:10276C003B687A680749F86800F030F90346002B9B
:10277C0001D0012300E0002318461837BD4680BD68
:10278C00080001000200010080B586B000AF78603F
:10279C000023FB607B685B6A7B617B6993F83D304F
:1027AC00FB744B4B1B68DB084A4AA2FB03231A0A37
:1027BC0013469B001344DA00D31AFB60FB68002B12
:1027CC0006D17B691B6C43F020027B691A640AE01A
:1027DC00FB68013BFB607B691B681B6803F400739F
:1027EC00B3F5007FEAD07B695B6B002B03D07B6970
:1027FC005B6B00229A627B699B6B002B03D07B691D
:10280C009B6B00229A627B691B681A687B691B6848
:10281C0022F480621A607B6900225A857B695B6BAB
:10282C00002B03D07B695B6B00225A637B699B6B2B
:10283C00002B03D07B699B6B00225A637B691B685E
:10284C001A687B691B6822F001021A607B6993F895
:10285C003D30DBB2602B0ED17B69202283F83D200A
:10286C007B69002283F83E207B6900221A64786918
:10287C00FEF7AAFC27E0FB7C03F02803282B17D1DA
:10288C007B691B681A687B691B6842F001021A603D
:10289C007B691B681A687B691B6842F480621A604A
:1028AC007B6900221A637B69282283F83D2007E0AC
:1028BC007B69202283F83D207B69002283F83E202F
:1028CC00786901F0D7FD00BF1837BD4680BD00BF49
:1028DC000000002089B5F81480B584B000AFF86012
:1028EC00B9603B601346FB7148E03B68B3F1FF3FB6
:1028FC0044D000F0CBFA0246BB69D31A3A689A422C
:10290C0002D33B68002B39D1BB681B0CDBB2012B0B
:10291C000DD1FB681B685B69DA43BB6813409BB243
:10292C00002B0CBF01230023DBB21A460CE0FB6822
:10293C001B689B69DA43BB6813409BB2002B0CBF2E
:10294C0001230023DBB21A46FB799A4216D1FB68AD
:10295C0000221A63FB68202283F83D20FB680022CA
:10296C0083F83E20FB681B6C43F02002FB681A6462
:10297C00FB68002283F83C20012323E0BB681B0C7E
:10298C00DBB2012B0DD1FB681B685B69DA43BB68BA
:10299C0013409BB2002B0CBF01230023DBB21A4661
:1029AC000CE0FB681B689B69DA43BB6813409BB265
:1029BC00002B0CBF01230023DBB21A46FB799A4291
:1029CC0093D0002318461037BD4680BD80B584B027
:1029DC0000AFF860B9607A603B6071E0FB681B681F
:1029EC005B6903F48063B3F5806F23D1FB681B68CC
:1029FC001A68FB681B6842F400721A60FB681B685B
:102A0C006FF480625A61FB6800221A63FB68202213
:102A1C0083F83D20FB68002283F83E20FB681B6C8A
:102A2C0043F00402FB681A64FB68002283F83C2024
:102A3C00012367E07B68B3F1FF3F41D000F026FA39
:102A4C0002463B68D31A7A689A4202D37B68002B01
:102A5C0036D1BB681B0CDBB2012B0CD1FB681B689D
:102A6C005B69DA43BB6813409BB2002B14BF012394
:102A7C000023DBB20BE0FB681B689B69DA43BB6885
:102A8C0013409BB2002B14BF01230023DBB2002B9D
:102A9C0016D0FB6800221A63FB68202283F83D20C5
:102AAC00FB68002283F83E20FB681B6C43F020027D
:102ABC00FB681A64FB68002283F83C20012321E0A8
:102ACC00BB681B0CDBB2012B0CD1FB681B685B6970
:102ADC00DA43BB6813409BB2002B14BF01230023C5
:102AEC00DBB20BE0FB681B689B69DA43BB681340E5
:102AFC009BB2002B14BF01230023DBB2002B7FF40D
:102B0C006DAF002318461037BD4680BD80B584B02C
:102B1C0000AFF860B9607A6034E0F86800F015F93D
:102B2C000346002B01D0012334E0BB68B3F1FF3F17
:102B3C0028D000F0ABF902467B68D31ABA689A42E7
:102B4C0002D3BB68002B1DD1FB681B685B6903F0CB
:102B5C008003802B16D0FB6800221A63FB682022AE
:102B6C0083F83D20FB68002283F83E20FB681B6C39
:102B7C0043F02002FB681A64FB68002283F83C20B7
:102B8C00012307E0FB681B685B6903F08003802B63
:102B9C00C3D1002318461037BD4680BD80B584B024
:102BAC0000AFF860B9607A6034E0F86800F0CDF8F6
:102BBC000346002B01D0012334E0BB68B3F1FF3F87
:102BCC0028D000F063F902467B68D31ABA689A429F
:102BDC0002D3BB68002B1DD1FB681B685B6903F03B
:102BEC000403042B16D0FB6800221A63FB68202216
:102BFC0083F83D20FB68002283F83E20FB681B6CA9
:102C0C0043F02002FB681A64FB68002283F83C2026
:102C1C00012307E0FB681B685B6903F00403042BCA
:102C2C00C3D1002318461037BD4680BD80B485B093
:102C3C0000AF78600023FB60134B1B68DB08134A62
:102C4C00A2FB03231A0A13469B001344FB60FB6888
:102C5C00013BFB60FB68002B07D17B681B6C43F0CE
:102C6C0020027B681A64012308E07B681B681B68E0
:102C7C0003F40073B3F5007FE9D000231846143732
:102C8C00BD4680BC704700BF0000002089B5F81419
:102C9C0080B584B000AFF860B9607A6049E0FB6839
:102CAC001B685B6903F01003102B19D1FB681B68C0
:102CBC006FF010025A61FB6800221A63FB68202235
:102CCC0083F83D20FB68002283F83E20FB681A6CD9
:102CDC00FB681A64FB68002283F83C20012330E077
:102CEC0000F0D4F802467B68D31ABA689A4202D331
:102CFC00BB68002B1DD1FB681B685B6903F04003AC
:102D0C00402B16D0FB6800221A63FB68202283F844
:102D1C003D20FB68002283F83E20FB681B6C43F0CF
:102D2C002002FB681A64FB68002283F83C20012314
:102D3C0007E0FB681B685B6903F04003402BAED1D6
:102D4C00002318461037BD4680BD80B483B000AF59
:102D5C0078607B681B685B6903F48063B3F5806FF4
:102D6C001BD17B681B686FF480625A617B68002200
:102D7C001A637B68202283F83D207B68002283F84D
:102D8C003E207B681B6C43F004027B681A647B68F2
:102D9C00002283F83C20012300E0002318460C3766
:102DAC00BD4680BC704780B483B000AF78607B6850
:102DBC00DB6AB3F52A0F03D17B680122DA6207E0E4
:102DCC007B68DB6AB3F12A4F02D17B680822DA6296
:102DDC0000BF0C37BD4680BC7047000080B500AF0B
:102DEC00084B1B68074A43F010031360032000F0E4
:102DFC0079FF0F2000F008F801F0E0FC00231846E2
:102E0C0080BD00BF0020024080B582B000AF78606A
:102E1C00124B1A68124B1B7819464FF47A73B3FB9A
:102E2C00F1F3B2FBF3F3184600F091FF0346002BCD
:102E3C0001D001230EE07B680F2B0AD800227968A1
:102E4C004FF0FF3000F059FF064A7B6813600023F7
:102E5C0000E0012318460837BD4680BD0000002065
:102E6C00080000200400002080B400AF054B1B7844
:102E7C001A46054B1B681344034A136000BFBD463A
:102E8C0080BC7047080000208400002080B400AF94
:102E9C00024B1B681846BD4680BC7047840000205E
:102EAC0080B584B000AF7860FFF7F0FFB8607B6846
:102EBC00FB60FB68B3F1FF3F05D00A4B1B781A4649
:102ECC00FB681344FB6000BFFFF7E0FF0246BB68E2
:102EDC00D31AFA689A42F7D800BF00BF1037BD4624
:102EEC0080BD00BF0800002080B586B000AF7860C0
:102EFC007B68002B01D1012372E27B681B6803F015
:102F0C000103002B00F08780924B5B6803F00C03ED
:102F1C00042B0CD08F4B5B6803F00C03082B12D1E5
:102F2C008C4B5B6803F48033B3F5803F0BD1894B3A
:102F3C001B6803F40033002B6CD07B685B68002BA0
:102F4C0068D101234CE27B685B68B3F5803F06D106
:102F5C00804B1B687F4A43F4803313602EE07B6800
:102F6C005B68002B0CD17B4B1B687A4A23F48033B3
:102F7C001360784B1B68774A23F4802313601DE0A1
:102F8C007B685B68B3F5A02F0CD1724B1B68714A40
:102F9C0043F4802313606F4B1B686E4A43F48033F9
:102FAC0013600BE06B4B1B686A4A23F4803313608D
:102FBC00684B1B68674A23F4802313607B685B684B
:102FCC00002B13D0FFF762FF386108E0FFF75EFFBC
:102FDC0002463B69D31A642B01D9032300E25D4BF3
:102FEC001B6803F40033002BF0D014E0FFF74EFF06
:102FFC00386108E0FFF74AFF02463B69D31A642B9D
:10300C0001D90323ECE1534B1B6803F40033002B71
:10301C00F0D100E000BF7B681B6803F00203002BBB
:10302C0063D04C4B5B6803F00C03002B0BD0494B6B
:10303C005B6803F00C03082B1CD1464B5B6803F454
:10304C008033002B16D1434B1B6803F00203002B7B
:10305C0005D07B681B69012B01D00123C0E13D4BDE
:10306C001B6823F0F8027B685B69DB00394913436A
:10307C000B603AE07B681B69002B20D0364B012299
:10308C001A60FFF703FF386108E0FFF7FFFE024606
:10309C003B69D31A022B01D90323A1E12D4B1B68E9
:1030AC0003F00203002BF0D02A4B1B6823F0F8022C
:1030BC007B685B69DB00274913430B6015E0264BEB
:1030CC0000221A60FFF7E2FE386108E0FFF7DEFE2F
:1030DC0002463B69D31A022B01D9032380E11D4B15
:1030EC001B6803F00203002BF0D17B681B6803F014
:1030FC000803002B3AD07B689B69002B19D0174B27
:10310C0001221A60FFF7C2FE386108E0FFF7BEFE2D
:10311C0002463B69D31A022B01D9032360E10D4B04
:10312C005B6A03F00203002BF0D0012000F0CEFA12
:10313C001CE00A4B00221A60FFF7A8FE38610FE072
:10314C00FFF7A4FE02463B69D31A022B08D90323CE
:10315C0046E100BF0010024000004242800442429F
:10316C00924B5B6A03F00203002BE9D17B681B686E
:10317C0003F00403002B00F0A6800023FB758B4B9F
:10318C00DB6903F08053002B0DD1884BDB69874A38
:10319C0043F08053D361854BDB6903F08053BB60F4
:1031AC00BB680123FB75824B1B6803F48073002BF7
:1031BC0018D17F4B1B687E4A43F480731360FFF772
:1031CC0065FE386108E0FFF761FE02463B69D31AE1
:1031DC00642B01D9032303E1754B1B6803F4807343
:1031EC00002BF0D07B68DB68012B06D16F4B1B6A80
:1031FC006E4A43F0010313622DE07B68DB68002B01
:10320C000CD16A4B1B6A694A23F001031362674BAA
:10321C001B6A664A23F0040313621CE07B68DB68BC
:10322C00052B0CD1614B1B6A604A43F004031362FB
:10323C005E4B1B6A5D4A43F0010313620BE05B4B70
:10324C001B6A5A4A23F001031362584B1B6A574AF4
:10325C0023F0040313627B68DB68002B15D0FFF7A7
:10326C0015FE38610AE0FFF711FE02463B69D31ADE
:10327C0041F28832934201D90323B1E04B4B1B6AD4
:10328C0003F00203002BEED014E0FFF7FFFD3861D2
:10329C000AE0FFF7FBFD02463B69D31A41F2883284
:1032AC00934201D903239BE0404B1B6A03F00203BA
:1032BC00002BEED1FB7D012B05D13C4BDB693B4A4E
:1032CC0023F08053D3617B68DB69002B00F087808F
:1032DC00364B5B6803F00C03082B61D07B68DB6911
:1032EC00022B46D1334B00221A60FFF7CFFD386119
:1032FC0008E0FFF7CBFD02463B69D31A022B01D93C
:10330C0003236DE0294B1B6803F00073002BF0D1F5
:10331C007B681B6AB3F5803F08D1244B5B6823F4B0
:10332C0000327B689B68214913434B601F4B5B68E1
:10333C0023F474127B68196A7B685B6A0B431B4924
:10334C0013434B601B4B01221A60FFF79FFD386142
:10335C0008E0FFF79BFD02463B69D31A022B01D90B
:10336C0003233DE0114B1B6803F00073002BF0D0DE
:10337C0035E0104B00221A60FFF788FD386108E039
:10338C00FFF784FD02463B69D31A022B01D90323B4
:10339C0026E0064B1B6803F00073002BF0D11EE0F7
:1033AC007B68DB69012B07D1012319E00010024077
:1033BC0000700040600042420B4B5B68FB60FB6896
:1033CC0003F480327B681B6A9A4206D1FB6803F4D3
:1033DC0070127B685B6A9A4201D0012300E00023E3
:1033EC0018461837BD4680BD0010024080B584B029
:1033FC0000AF786039607B68002B01D10123D0E0ED
:10340C006A4B1B6803F007033A689A4210D9674B62
:10341C001B6823F0070265493B6813430B60634B41
:10342C001B6803F007033A689A4201D00123B8E005
:10343C007B681B6803F00203002B20D07B681B68A1
:10344C0003F00403002B05D0594B5B68584A43F436
:10345C00E06353607B681B6803F00803002B05D006
:10346C00534B5B68524A43F460535360504B5B6858
:10347C0023F0F0027B689B684D4913434B607B68DB
:10348C001B6803F00103002B40D07B685B68012BA9
:10349C0007D1474B1B6803F40033002B15D10123D4
:1034AC007FE07B685B68022B07D1414B1B6803F004
:1034BC000073002B09D1012373E03D4B1B6803F013
:1034CC000203002B01D101236BE0394B5B6823F025
:1034DC0003027B685B68364913434B60FFF7D6FCED
:1034EC00F8600AE0FFF7D2FC0246FB68D31A41F2FF
:1034FC008832934201D9032353E02D4B5B6803F0D0
:10350C000C027B685B689B009A42EBD1274B1B68D3
:10351C0003F007033A689A4210D2244B1B6823F03D
:10352C00070222493B6813430B60204B1B6803F0D6
:10353C0007033A689A4201D0012332E07B681B688A
:10354C0003F00403002B08D0194B5B6823F4E062F2
:10355C007B68DB68164913434B607B681B6803F080
:10356C000803002B09D0124B5B6823F460527B6874
:10357C001B69DB000E4913434B6000F021F8024637
:10358C000B4B5B681B0903F00F030A49CB5C22FA57
:10359C0003F3094A1360094B1B681846FFF734FC08
:1035AC00002318461037BD4680BD00BF00200240E6
:1035BC0000100240085A00080000002004000020FF
:1035CC0080B487B000AF0023FB600023BB600023F6
:1035DC007B6100237B6000233B611E4B5B68FB60BF
:1035EC00FB6803F00C03042B02D0082B03D027E05C
:1035FC00194B3B6127E0FB689B0C03F00F03174A48
:10360C00D35C7B60FB6803F48033002B10D0114B30
:10361C005B685B0C03F00103114AD35CBB607B68F5
:10362C000D4A03FB02F2BB68B2FBF3F37B6104E0CF
:10363C007B680C4A02FB03F37B617B693B6102E014
:10364C00054B3B6100BF3B6918461C37BD4680BC2F
:10365C00704700BF0010024000127A00205A000888
:10366C00305A000800093D0080B400AF024B1B68C3
:10367C001846BD4680BC70470000002080B500AFE6
:10368C00FFF7F2FF0246054B5B681B0A03F00703CA
:10369C000349CB5C22FA03F3184680BD00100240AC
:1036AC00185A000880B500AFFFF7DEFF0246054B45
:1036BC005B68DB0A03F007030349CB5C22FA03F3D4
:1036CC00184680BD00100240185A000880B485B01E
:1036DC0000AF78600A4B1B680A4AA2FB03235B0A03
:1036EC007A6802FB03F3FB6000BFFB685A1EFA60AA
:1036FC00002BF9D100BF00BF1437BD4680BC70470A
:10370C0000000020D34D621080B48BB000AF786005
:10371C00396000237B6200233B6269E101227B6AF2
:10372C0002FA03F3FB613B681B68FA691340BB6147
:10373C00BA69FB699A4240F058813B685B689A4AC7
:10374C0093425ED0984A934275D8984A934258D087
:10375C00964A93426FD8964A934252D0944A9342D7
:10376C0069D8944A93424CD0924A934263D8924A75
:10377C00934246D0904A93425DD8122B2AD8122BF2
:10378C0059D801A252F823F00F380008E937000885
:10379C00FB3700083D380008433800084338000860
:1037AC004338000843380008433800084338000801
:1037BC0043380008433800084338000843380008F1
:1037CC00433800084338000843380008F137000834
:1037DC0005380008794A934213D02CE03B68DB682B
:1037EC003B6229E03B68DB6804333B6224E03B68C6
:1037FC00DB6808333B621FE03B68DB680C333B62E1
:10380C001AE03B689B68002B02D104233B6213E057
:10381C003B689B68012B05D108233B627B68FA69E6
:10382C001A6109E008233B627B68FA695A6103E07C
:10383C0000233B6200E000BFBB69FF2B01D87B6813
:10384C0001E07B6804337B61BB69FF2B02D87B6A88
:10385C009B0002E07B6A083B9B003B617B691A681A
:10386C000F213B6901FA03F3DB431A40396A3B69C8
:10387C0001FA03F31A437B691A603B685B6803F037
:10388C008053002B00F0B1804D4B9B694C4A43F0A8
:10389C00010393614A4B9B6903F00103BB60BB6856
:1038AC00484A7B6A9B08023352F82330FB607B6AE0
:1038BC0003F003039B000F2202FA03F3DB43FA68C5
:1038CC001340FB607B68404A934213D07B683F4AAD
:1038DC0093420DD07B683E4A934207D07B683D4AA9
:1038EC00934201D1032306E0042304E0022302E007
:1038FC00012300E000237A6A02F003029200934055
:10390C00FA681343FB602F497B6A9B080233FA6801
:10391C0041F823203B685B6803F48013002B06D02E
:10392C002D4B9A682C49BB6913438B6006E02A4BDC
:10393C009A68BB69DB43284913408B603B685B6822
:10394C0003F40013002B06D0234BDA682249BB6921
:10395C001343CB6006E0204BDA68BB69DB431E499E
:10396C001340CB603B685B6803F40033002B06D03C
:10397C00194B5A681849BB6913434B6006E0164B48
:10398C005A68BB69DB43144913404B603B685B6866
:10399C0003F48033002B21D00F4B1A680E49BB69FE
:1039AC0013430B6021E000BF000032100000311007
:1039BC000000221000002110000012100000111055
:1039CC00001002400000014000080140000C0140C2
:1039DC000010014000140140000401400B4B1A6818
:1039EC00BB69DB43094913400B607B6A01337B6283
:1039FC003B681A687B6A22FA03F3002B7FF48EAEC5
:103A0C0000BF00BF2C37BD4680BC7047000401408E
:103A1C0080B483B000AF78600B467B8013467B701C
:103A2C007B78002B03D07A887B681A6103E07B8853
:103A3C001A047B681A6100BF0C37BD4680BC704706
:103A4C0080B584B000AF78600023FB737B6893F87B
:103A5C002130DBB2022B05D07B6804229A63012350
:103A6C00FB7351E07B681B681A687B681B6822F04B
:103A7C000E021A607B681B681A687B681B6822F050
:103A8C0001021A607B681B68224A934229D07B682A
:103A9C001B68214A934222D07B681B681F4A9342C1
:103AAC001AD07B681B681E4A934212D07B681B6835
:103ABC001C4A93420AD07B681B681B4A934202D172
:103ACC004FF480130EE04FF080730BE04FF4803313
:103ADC0008E04FF4805305E04FF4807302E01023AC
:103AEC0000E00123114A53607B68012283F82120F6
:103AFC007B68002283F820207B685B6B002B03D053
:103B0C007B685B6B78689847FB7B18461037BD4623
:103B1C0080BD00BF080002401C0002403000024083
:103B2C0044000240580002406C0002400000024079
:103B3C0080B483B000AF78607B6893F82130DBB23F
:103B4C0018460C37BD4680BC7047000080B485B069
:103B5C0000AF78607B6803F00703FB600C4BDB68FD
:103B6C00BB60BA684FF6FF031340BB60FB681A02D8
:103B7C00BB68134343F0BF6343F40033BB60044A98
:103B8C00BB68D36000BF1437BD4680BC704700BF14
:103B9C0000ED00E080B400AF044BDB681B0A03F0BF
:103BAC0007031846BD4680BC704700BF00ED00E01F
:103BBC0080B483B000AF0346FB7197F90730002B3C
:103BCC000BDBFB7903F01F02064997F907305B0901
:103BDC00012000FA02F241F8232000BF0C37BD4649
:103BEC0080BC704700E100E080B483B000AF0346B6
:103BFC003960FB7197F90730002B0ADB3B68DAB2AE
:103C0C000C4997F907301201D2B20B4483F8002308
:103C1C000AE03B68DAB20849FB7903F00F03043B76
:103C2C001201D2B20B441A7600BF0C37BD4680BCD1
:103C3C00704700BF00E100E000ED00E080B489B007
:103C4C0000AFF860B9607A60FB6803F00703FB61B2
:103C5C00FB69C3F10703042B28BF0423BB61FB6979
:103C6C000433062B02D9FB69033B00E000237B6184
:103C7C004FF0FF32BB6902FA03F3DA43BB681A4018
:103C8C007B699A404FF0FF317B6901FA03F3D9430A
:103C9C007B680B40134318462437BD4680BC7047E5
:103CAC0080B582B000AF78607B68013BB3F1807F58
:103CBC0001D301230FE00A4A7B68013B53600F21BB
:103CCC004FF0FF30FFF790FF054B00229A60044B3A
:103CDC0007221A60002318460837BD4680BD00BF76
:103CEC0010E000E080B582B000AF78607868FFF734
:103CFC002DFF00BF0837BD4680BD80B586B000AF34
:103D0C000346B9607A60FB7300237B61FFF742FFC7
:103D1C0078617A68B9687869FFF790FF024697F97D
:103D2C000F3011461846FFF75FFF00BF1837BD462E
:103D3C0080BD80B582B000AF0346FB7197F90730A8
:103D4C001846FFF735FF00BF0837BD4680BD80B56C
:103D5C0082B000AF78607868FFF7A2FF0346184680
:103D6C000837BD4680BD80B582B000AF78607B68F7
:103D7C00002B01D1012342E07B6893F84130DBB288
:103D8C00002B06D17B68002283F84020786800F075
:103D9C0089FC7B68242283F841207B681B68DA68E5
:103DAC007B681B6822F40052DA60786800F072F9C4
:103DBC007B681B681A697B681B6822F490421A6145
:103DCC007B681B685A697B681B6822F02A025A615F
:103DDC007B681B68DA687B681B6842F40052DA6007
:103DEC007B6800225A647B68202283F841207B6820
:103DFC00202283F842207B6800225A630023184655
:103E0C000837BD4680BD80B58AB002AFF860B96096
:103E1C003B601346FB8000237B61FB6893F84130C9
:103E2C00DBB2202B75D1BB68002B02D0FB88002B9A
:103E3C0001D101236EE0FB6800225A64FB68212249
:103E4C0083F84120FFF722F87861FB68FA889A849E
:103E5C00FB68FA88DA84FB689B68B3F5805F08D14D
:103E6C00FB681B69002B04D10023FB61BB68BB61A1
:103E7C0003E0BB68FB610023BB612EE03B68009351
:103E8C007B6900228021F86800F048F80346002B7B
:103E9C0005D0FB68202283F8412003233AE0FB691C
:103EAC00002B0BD1BB691B881A46FB681B68C2F33D
:103EBC0008025A60BB690233BB6107E0FB691A78E0
:103ECC00FB681B685A60FB690133FB61FB68DB8C88
:103EDC009BB2013B9AB2FB68DA84FB68DB8C9BB229
:103EEC00002BCBD13B6800937B6900224021F86802
:103EFC0000F014F80346002B05D0FB68202283F851
:103F0C004120032306E0FB68202283F84120002394
:103F1C0000E0022318462037BD4680BD80B586B030
:103F2C0000AFF860B9603B601346FB713BE03B6A45
:103F3C00B3F1FF3F37D0FEF7A9FF02463B68D31A17
:103F4C003A6A9A4202D33B6A002B01D103233AE02E
:103F5C00FB681B68DB6803F00403002B23D0BB68F1
:103F6C00802B20D0BB68402B1DD0FB681B681B68C6
:103F7C0003F00803082B16D100237B61FB681B6838
:103F8C001B687B61FB681B685B687B617B69F868FD
:103F9C0000F01DF8FB6808225A64FB68002283F8C5
:103FAC00402001230FE0FB681B681A68BB681340B4
:103FBC00BA689A420CBF01230023DBB21A46FB7984
:103FCC009A42B4D0002318461837BD4680BD80B441
:103FDC0095B000AF78607B681B680C337B637B6BA0
:103FEC0053E8003F3B633B6B23F49073FB647B68AB
:103FFC001B680C33FA6C3A64FB63F96B3A6C41E85E
:10400C000023BB63BB6B002BE5D17B681B681433AF
:10401C003B623B6A53E8003FFB61FB6923F0010301
:10402C00BB647B681B681433BA6CFA62BB62B96AF6
:10403C00FA6A41E800237B627B6A002BE5D17B683E
:10404C001B6B012B19D17B681B680C33FB60FB6865
:10405C0053E8003FBB60BB6823F010037B647B68B4
:10406C001B680C337A6CBA617B617969BA6941E877
:10407C0000233B613B69002BE5D17B68202283F850
:10408C0042207B6800221A6300BF5437BD4680BCB7
:10409C007047000080B584B000AF78607B681B6807
:1040AC001B6923F440517B68DA687B681B680A4300
:1040BC001A617B689A687B681B691A437B685B6929
:1040CC001343BB607B681B68DB6823F4B05323F09D
:1040DC000C037A681268B9680B43D3607B681B6861
:1040EC005B6923F440717B689A697B681B680A439F
:1040FC005A617B681B682C4A934203D1FFF7D2FAB2
:10410C00F86002E0FFF7BAFAF860FA6813469B0011
:10411C0013449A001A447B685B689B00B2FBF3F370
:10412C00224AA2FB03235B091901FA6813469B0080
:10413C0013449A001A447B685B689B00B2FBF3F251
:10414C001A4BA3FB02035B09642000FB03F3D31A95
:10415C001B013233154AA2FB03235B0903F0F00366
:10416C001944FA6813469B0013449A001A447B685E
:10417C005B689B00B2FBF3F20C4BA3FB02035B09E5
:10418C00642000FB03F3D31A1B013233074AA2FB52
:10419C0003235B0903F00F027B681B680A449A60D7
:1041AC0000BF1037BD4680BD003801401F85EB5164
:1041BC0080B582B000AF7860391D4FF6FF730122D5
:1041CC000348FFF720FE7B6818460837BD4680BDC4
:1041DC00E000002080B584B002AFFEF7FFFD00F0D8
:1041EC00E1F800F067F900F0B7F900F031FA45F2A8
:1041FC000853BB805023FB80FB885B0099B23A1DAF
:10420C0002235F48FCF764FC0346002B05D05D4895
:10421C0000F0F6FC00F048F90EE000BF5A4B1B789A
:10422C0083F00103DBB2002BF8D17B7919463B7983
:10423C001A46564800F07CFC0A20FEF731FE00239B
:10424C00FB700823BB70504B00221A70FB885B007C
:10425C0099B2BA1C01234A48FCF73AFC0346002BDE
:10426C0005D04B4800F0CCFC00F01EF90CE000BF70
:10427C00454B1B7883F00103DBB2002BF8D1BB78E4
:10428C001946444800F054FC6420FEF709FEFB88F4
:10429C005B0099B2FA1C01233948FCF7B9FC0346C0
:1042AC00002B05D03C4800F0ABFC00F0FDF80EE014
:1042BC0000BF3A4B1B7883F00103DBB2002BF8D123
:1042CC00FB781946BB781A46354800F031FCFF23C1
:1042DC007B71FB885B0099B23A1D4FF0FF33009362
:1042EC0002232748FCF78AF80346002B05D0254803
:1042FC0000F086FC00F0D8F806E07B7919463B7993
:10430C001A46224800F014FC0A20FEF7C9FD0023CF
:10431C00FB700823BB70FB885B0099B2BA1C4FF68C
:10432C00FF73009301231648FCF768F80346002B33
:10433C0004D0174800F064FC00F0B6F80A20FEF731
:10434C00AFFDFB885B0099B2FA1C4FF6FF7300932C
:10435C0001230B48FCF750F90346002B05D00E48FF
:10436C0000F04EFC00F0A0F807E0FB781946BB7893
:10437C001A460B4800F0DCFB00BF00BFFDE700BF96
:10438C008C000020005900088800002018590008F3
:10439C0048590008705900089C59000889000020F1
:1043AC00C059000880B590B000AF07F1180328225F
:1043BC000021184600F004FD3B1D00221A605A60D3
:1043CC009A60DA601A610223BB610123BB6210237D
:1043DC00FB6200237B6307F118031846FEF784FD8C
:1043EC000346002B01D000F05FF80F237B60002305
:1043FC00BB600023FB6000233B6100237B613B1D02
:10440C0000211846FEF7F2FF0346002B01D000F006
:10441C004BF800BF4037BD4680BD000080B483B070
:10442C0000AF78607B681B68054A934202D1054B4C
:10443C0001221A7000BF0C37BD4680BC704700BF0C
:10444C00005400408800002080B483B000AF786036
:10445C007B681B68054A934202D1054B01221A70F6
:10446C0000BF0C37BD4680BC704700BF00540040F5
:10447C008900002080B582B000AF78607B681B6833
:10448C00074A934207D17B681B6C1946054800F01C
:10449C004FFB00F009F800BF0837BD4680BD00BFD8
:1044AC0000540040F459000880B400AF72B600BF4D
:1044BC0000BFFDE780B586B000AF07F1080300220E
:1044CC001A605A609A60DA60204B9B691F4A43F06D
:1044DC00040393611D4B9B6903F004037B607B68B1
:1044EC001A4B9B69194A43F008039361174B9B695C
:1044FC0003F008033B603B68002210211448FFF7CF
:10450C0087FA002202211348FFF782FA1023BB60BE
:10451C000123FB6000233B6102237B6107F108034D
:10452C0019460B48FFF7F0F80223BB600123FB6030
:10453C0000233B6102237B6107F108031946054800
:10454C00FFF7E2F800BF1837BD4680BD00100240EF
:10455C0000080140000C014080B500AF124B134A1B
:10456C001A60114B124A5A600F4B00229A600E4B84
:10457C000022DA600C4B4FF480421A610A4B002285
:10458C005A61094B00229A61074B0022DA61064BF3
:10459C0000221A620448FBF7D9FD0346002B01D018
:1045AC00FFF782FF00BF80BD8C000020005400404C
:1045BC00A086010080B588B000AF786007F11003C9
:1045CC0000221A605A609A60DA607B681B681D4A88
:1045DC00934233D11C4B9B691B4A43F008039361F4
:1045EC00194B9B6903F00803FB60FB68C0233B611C
:1045FC0012237B610323FB6107F110031946134857
:10460C00FFF782F8104BDB690F4A43F40013D361B8
:10461C000D4BDB6903F40013BB60BB680022002167
:10462C001F20FFF76AFB1F20FFF783FB00220021EE
:10463C002020FFF762FB2020FFF77BFB00BF203719
:10464C00BD4680BD0054004000100240000C0140EB
:10465C0080B500AF114B124A1A60104B4FF4E13287
:10466C005A600E4B00229A600C4B0022DA600B4B06
:10467C0000221A61094B0C225A61084B00229A61E4
:10468C00064B0022DA610548FFF76DFB0346002B51
:10469C0001D0FFF709FF00BF80BD00BFE000002084
:1046AC000038014080B588B000AF786007F1100386
:1046BC0000221A605A609A60DA607B681B681C4A98
:1046CC00934231D11B4B9B691A4A43F4804393614B
:1046DC00184B9B6903F48043FB60FB68154B9B698B
:1046EC00144A43F004039361124B9B6903F00403D7
:1046FC00BB60BB684FF400733B6102237B610323F7
:10470C00FB6107F1100319460B48FEF7FDFF4FF450
:10471C0080633B6100237B610023BB6107F11003C5
:10472C0019460548FEF7F0FF00BF2037BD4680BD97
:10473C0000380140001002400008014080B400AF76
:10474C0000BFFDE780B400AF00BFFDE780B400AF51
:10475C0000BFFDE780B400AF00BFFDE780B400AF41
:10476C0000BFFDE780B400AF00BFBD4680BC704702
:10477C0080B400AF00BFBD4680BC704780B400AFB2
:10478C0000BFBD4680BC704780B500AFFEF76CFB28
:10479C0000BF80BD80B500AF0248FCF7E1FA00BF56
:1047AC0080BD00BF8C00002080B500AF0248FCF734
:1047BC002AFC00BF80BD00BF8C00002080B485B0F7
:1047CC0000AF154B9B69144A43F001039361124BE4
:1047DC009B6903F00103BB60BB680F4BDB690E4A9E
:1047EC0043F08053D3610C4BDB6903F080537B6047
:1047FC007B680A4B5B68FB60FB6823F0E063FB6043
:10480C00FB6843F08063FB60044AFB68536000BFA5
:10481C001437BD4680BC70470010024000000140B8
:10482C0080B586B000AF7860144A154BD31A7B6103
:10483C007B693B61134B1B68002B02D1114B124A55
:10484C001A60104B1A687B6813443A699A4207D273
:10485C0000F004FB03460C221A604FF0FF3309E012
:10486C00084B1B68FB60074B1A687B681344054AAE
:10487C001360FB6818461837BD4680BD00500020F9
:10488C0000040000280100207802002080B586B0CA
:10489C0000AFF860B9607A6000237B610AE0AFF387
:1048AC0000800146BB685A1CBA60CAB21A707B6998
:1048BC0001337B617A697B689A42F0DB7B6818462E
:1048CC001837BD4680BD80B586B000AFF860B960C2
:1048DC007A6000237B6109E0BB685A1CBA601B78C4
:1048EC001846FFF765FC7B6901337B617A697B684D
:1048FC009A42F1DB7B6818461837BD4680BD80B400
:10490C0083B000AF78604FF0FF3318460C37BD46CC
:10491C0080BC704780B483B000AF786039603B686E
:10492C004FF400525A60002318460C37BD4680BC29
:10493C00704780B483B000AF7860012318460C3701
:10494C00BD4680BC704780B485B000AFF860B960DC
:10495C007A60002318461437BD4680BC70470000AF
:10496C00FBF7EEFB0B480C490C4A002302E0D45831
:10497C00C4500433C4188C42F9D3094A094C00239F
:10498C0001E013600432A242FBD300F06DFAFFF792
:10499C0021FC70470000002068000020705A0008BD
:1049AC006800002078020020FEE70000002310B50C
:1049BC000446C0E90033C0E9043383608181436657
:1049CC00C2818361194608225C3000F0F9F90D4B65
:1049DC00246263620C4BA3620C4BE3620C4B2363AB
:1049EC000C4B9C4206D003F16802944202D0D033A7
:1049FC009C4205D104F15800BDE8104000F058BAB3
:104A0C0010BD00BF1D4C00083F4C0008774C00083F
:104A1C009B4C00082C010020024A0349034800F07B
:104A2C0069B800BF0C000020555700081C0000207E
:104A3C0041680C4B10B59942044601D000F084FE3D
:104A4C00A168094B994202D0204600F07DFEE16836
:104A5C00064B994204D02046BDE8104000F074BECD
:104A6C0010BD00BF2C01002094010020FC0100208F
:104A7C0010B50B4B0B4C0C4A20461A60042100223B
:104A8C00FFF794FF04F1680001220921FFF78EFF64
:104A9C0004F1D0000222BDE810401221FFF786BFBE
:104AAC00640200202C010020254A0008014800F077
:104ABC0000BA00BF6D020020014800F0FBB900BF36
:104ACC006D02002010B50446FFF7F0FF236A1BB1FE
:104ADC00BDE81040FFF7F0BF044B2362044B1B688A
:104AEC00002BF5D1FFF7C4FFF2E700BF3D4A0008E9
:104AFC00640200202DE9F843074688461446002638
:104B0C00D4E90195B9F1010905D52468002CF7D138
:104B1C003046BDE8F883AB89012B07D9B5F90E30C7
:104B2C00013303D029463846C04706436835E9E7C8
:104B3C000FB407B5064904AB086853F8042B816819
:104B4C00019300F0D7FA03B05DF804EB04B07047A2
:104B5C0018000020036A70B505460E4684680BB930
:104B6C00FFF7B0FF636EDB0705D4A389980502D469
:104B7C00A06D00F09EF9A389190702D52369002BBB
:104B8C0035D12146284600F0C5F880B34FF0FF35EB
:104B9C00636EDA0705D4A3899B0502D4A06D00F0DF
:104BAC0089F9284670BD002B04DAA2699A4217DCF9
:104BBC000A2915D023685A1C22601970A36816F8AC
:104BCC00011F013BA3600029EDD1002B11DA224615
:104BDC000A21284600F05FF80130D7D00A25D7E724
:104BEC002246284600F057F80130E7D1CEE7013EC7
:104BFC00E4E723685A1C22600A221A70EEE70000D0
:104C0C00024B01461868FFF7A5BF00BF1800002033
:104C1C0010B50C46B1F90E1000F0FCF80028ABBF33
:104C2C00636DA3891B1823F48053ACBF6365A38108
:104C3C0010BD2DE9F0411F468B890546DB050C465E
:104C4C00164605D502230022B1F90E1000F0D0F85B
:104C5C00A389324623F48053A38128463B46B4F9FA
:104C6C000E10BDE8F04100F0E7B810B50C46B1F9F4
:104C7C000E1000F0BDF8431CA38915BF606523F42A
:104C8C00805343F48053A38118BFA38110BDB1F9A5
:104C9C000E1000F09DB8F8B50E461446054618B136
:104CAC00036A0BB9FFF70EFFA369A360A3891A0768
:104CBC0001D5236943B92146284600F02BF818B1D9
:104CCC004FF0FF373846F8BD23682269F6B2981AC0
:104CDC0063693746834205DC2146284600F034FDE3
:104CEC000028EDD1A368013BA36023685A1C226005
:104CFC001E706269431C9A4204D0A389DB07E1D57C
:104D0C000A2EDFD12146284600F01EFD0028D9D0FE
:104D1C00D6E7000038B5294B054618680C4618B183
:104D2C00036A0BB9FFF7CEFEB4F90C30190722D485
:104D3C00DA0607D409222A6043F040034FF0FF3013
:104D4C00A38133E0580712D5616B41B104F14403E0
:104D5C00994202D0284600F0AFF800236363A38980
:104D6C0023F02403A3810023636023692360A389B8
:104D7C0043F00803A38123694BB9A38903F420737F
:104D8C00B3F5007F03D02146284600F02AFDB4F984
:104D9C000C3013F001020AD00022A2606269524268
:104DAC00A261226942B913F08000C5D138BD9907C0
:104DBC0058BF6269A260F4E70020F7E718000020F2
:104DCC0003460244934200D1704703F8011BF9E7F4
:104DDC0038B50023054D044608462B60FFF78FFDC0
:104DEC00431C02D12B6803B1236038BD680200203C
:104DFC0038B50446084611460022054D2A601A466D
:104E0C00FFF7A1FD431C02D12B6803B1236038BD11
:104E1C006802002038B50446084611460022054DAC
:104E2C002A601A46FFF732FD431C02D12B6803B1EE
:104E3C00236038BD6802002038B504460846114688
:104E4C000022054D2A601A46FFF73DFD431C02D196
:104E5C002B6803B1236038BD68020020014B186831
:104E6C00704700BF1800002070B500260C4D0D4C8B
:104E7C00641BA410A64209D100F030FD00260A4D97
:104E8C000A4C641BA410A64205D170BD55F8043B16
:104E9C0098470136EEE755F8043B98470136F2E7A0
:104EAC00685A0008685A0008685A00086C5A0008CA
:104EBC00704770477047000038B50546002940D050
:104ECC0051F8043C0C1F002BB8BFE41800F0DEF8BE
:104EDC001C4A136833B9636014602846BDE8384037
:104EEC0000F0DAB8A34208D9206821188B4201BF20
:104EFC0019685B6809182160EDE71A465B680BB10D
:104F0C00A342FAD911685018A0420BD12068014471
:104F1C00501883421160E0D118685B680844106037
:104F2C005360DAE702D90C232B60D6E720682118EE
:104F3C008B4201BF19685B6809182160636054607B
:104F4C00CBE738BD7402002070B50F4E0C463168AB
:104F5C00054611B900F0A4FC30602146284600F04B
:104F6C009FFC431C03D14FF0FF34204670BDC41C82
:104F7C0024F00304A042F8D0211A284600F090FC3B
:104F8C000130F2D1EFE700BF700200202DE9F843A9
:104F9C00CD1C25F0030508350C2D38BF0C25002D34
:104FAC00064601DBA94204D90C2333600020BDE87E
:104FBC00F883DFF8D48000F069F8D8F800301C468C
:104FCC0044BB29463046FFF7BFFF431C044658D16B
:104FDC00D8F800402746002F43D1002C4BD0236833
:104FEC003946304604EB030900F05AFC814542D1A6
:104FFC00216830466D1A2946FFF7A6FF01303AD0DA
:10500C0023682B442360D8F800305A6862BBC8F878
:10501C0000700FE02268521B20D40B2A17D961199B
:10502C00A342256018BF5960636808BFC8F8001018
:10503C0062514B60304600F02FF804F10B00231D39
:10504C0020F00700C21A1CBF1B1AA350AFE76268FE
:10505C00A3420CBFC8F800205A60EBE723466468F3
:10506C00AEE73C467F68B6E71A465B68A342FBD1C5
:10507C0000235360DEE70C233046336000F00CF85D
:10508C0094E70560D6E700BF740200200148FFF7E3
:10509C0010BF00BF6C0200200148FFF70BBF00BF20
:1050AC006C020020936810B4013B002B936007DA6C
:1050BC009469A34201DB0A2902D110BCFFF7EBBDB6
:1050CC001368581C10601970084610BC7047F8B56E
:1050DC0006460F461446D518AC4201D1002007E015
:1050EC003A46304614F8011BFFF7DCFF431CF3D1A2
:1050FC00F8BD00002DE9F04F0D46144698460646C3
:10510C009DB018B1036A0BB9FFF7DCFC6B6ED907C5
:10511C0005D4AB899A0502D4A86DFFF7CAFEAB89FA
:10512C001B0701D52B699BB929463046FFF7F2FDC9
:10513C0070B16B6EDC0704D54FF0FF301DB0BDE8CD
:10514C00F08FAB899805F7D4A86DFFF7B3FEF3E7A2
:10515C000023099320238DF8293030234FF00109C7
:10516C00CDF80C80DFF8A8818DF82A3023469A46BA
:10517C0013F8012B0AB1252AF9D1BAEB040B0BD089
:10518C005B46224629463046FFF7A1FF013000F06E
:10519C00A780099A5A4409929AF80030002B00F023
:1051AC009F8000234FF0FF32CDE905230AF1010A5D
:1051BC00049307938DF853301A935446052214F830
:1051CC00011B534800F07CFB049AD8B9D10644BFAC
:1051DC0020238DF85330130744BF2B238DF8533005
:1051EC009AF800302A2B15D0544600204FF00A0CA8
:1051FC00079A214611F8013B303B092B4BD9B0B132
:10520C00079214E0A0EB080309FA03F31343A24638
:10521C000493D2E7039B191D1B680391002BBBBFA2
:10522C005B4242F0020207930793B8BF04922378C3
:10523C002E2B0AD163782A2B32D1039B02341A1DF0
:10524C001B68039243EAE3730593DFF8C8A00322BB
:10525C005046217800F034FB38B14022049BA0EB7F
:10526C000A00824013430134049314F8011B0622F4
:10527C0029488DF8281000F023FB00283FD0274B3D
:10528C001BBB039B073323F0070308330393099BD2
:10529C003B4409936AE70C4601200CFB0232A8E759
:1052AC0000234FF00A0C194601340593204610F8E0
:1052BC00012B303A092A03D9002BC6D00591C4E73B
:1052CC00044601230CFB0121F0E703AB00932A46B3
:1052DC003046134B04A9AFF300800746781CD6D197
:1052EC006B6ED90705D4AB899A0502D4A86DFFF76C
:1052FC00E1FDAB895B063FF51FAF09981EE703ABD9
:10530C0000932A463046064B04A900F07DF8E4E7EA
:10531C00325A0008385A00083C5A000800000000B5
:10532C00DB5000082DE9F047164698468A680B6951
:10533C0007469342B8BF1346336091F843200C469E
:10534C00DDF820900AB1013333602368990642BF1F
:10535C00336802333360256815F0060506D104F175
:10536C00190AE36832689B1AAB422BDC94F8433081
:10537C002268003B18BF0123920630D441463846C0
:10538C0004F14302C847013023D02368226903F09B
:10539C000603042B14BF002533684FF0000608BF2A
:1053AC00E56804F11A0408BFED1A54F8123C08BF62
:1053BC0025EAE5759342C4BF9B1AED18B5421AD184
:1053CC00002008E00123524641463846C8470130C8
:1053DC0003D14FF0FF30BDE8F0870135C1E7302035
:1053EC00E11881F843005A1C94F84510224402330A
:1053FC0082F84310C2E70123224641463846C8478B
:10540C000130E6D00136D9E72DE9FF470F7E9146F2
:10541C00782F80460C469A460C9E01F1430207D821
:10542C00622F0AD8002F00F0D380582F00F0BA80DA
:10543C0004F1420684F842703AE0A7F16303152B9D
:10544C00F6D801A151F823F0AD540008C15400085E
:10545C003D5400083D5400083D5400083D540008DC
:10546C00C15400083D5400083D5400083D54000848
:10547C003D540008C3550008EB5400087D55000846
:10548C003D5400083D540008E55500083D54000803
:10549C00EB5400083D5400083D54000885550008A5
:1054AC0033681A1D1B68326004F1420684F84230DE
:1054BC0001239EE033682068191D3160060601D572
:1054CC001D6803E04506FBD5B3F90050002D03DA47
:1054DC002D236D4284F843300A23594811E021688A
:1054EC003368080653F8045B02D4490648BFADB2D2
:1054FC006F2F336014BF0A2308235148002184F80E
:10550C0043106668002EA8BF2168A660A4BF21F0D6
:10551C00040121600DB9002E4BD01646B5FBF3F1FA
:10552C0003FB1157C75D06F8017D2F46BB420D46A4
:10553C00F4D9082B0BD12368DF0708D523696168E0
:10554C009942DEBF302306F8013C06F1FF36921B70
:10555C0022614B4621464046CDF800A003AAFFF736
:10556C00E1FE01304AD14FF0FF3004B0BDE8F087C6
:10557C00236843F0200323607827324884F8457071
:10558C00236831681F0651F8045B02D45F0648BFDC
:10559C00ADB23160D90744BF43F0200323601DB185
:1055AC001023ABE72648E9E7236823F020032360A8
:1055BC00F6E71646BDE733682568181D616930604B
:1055CC002E061B6801D5196002E06806FBD5198010
:1055DC00002316462361BCE7336800211A1D326094
:1055EC001E686268304600F06BF908B1801B606081
:1055FC0063682361002384F84330AAE732464946A6
:10560C0040462369D0470130ADD023689B0713D4A3
:10561C00E068039B9842B8BF1846A6E701233246C0
:10562C0049464046D04701309DD00135E368039987
:10563C005B1AAB42F2DCEBE7002504F11906F5E747
:10564C00435A0008545A0008B1F90C20F8B5160753
:10565C0005460C4654D44B68002B02DC0B6C002B1B
:10566C0048DDE66A002E45D0002312F480522F68E4
:10567C00216A2B6030D0626DA389590705D5636808
:10568C00D21A636B0BB1236CD21A00232846E66A3C
:10569C00216AB047431CA38906D129681D292BD840
:1056AC00284A0A41D60727D4002262602269D9040D
:1056BC00226004D5421C01D12B6803B96065616B73
:1056CC002F60B9B104F14403994202D02846FFF788
:1056DC00F3FB002363630DE001232846B047024629
:1056EC00501CC9D12B68002BC6D01D2B01D0162BFA
:1056FC001DD12F60002021E043F040031BB21AE0C3
:10570C000F69002FF6D0930718BF00230E6808BF4F
:10571C004B69F61B0F608B60002EEBDD33463A466F
:10572C002846216AD4F828C0E047002807DCB4F9E1
:10573C000C3043F040034FF0FF30A381F8BD074419
:10574C00361AE9E7FEFFBFDF38B50B6905460C4694
:10575C0013B90025284638BD18B1036A0BB9FFF7F9
:10576C00B1F9B4F90C30002BF3D0626ED00704D42D
:10577C00990502D4A06DFFF79CFB28462146FFF744
:10578C0063FF636E0546DA07E4D4A3899B05E1D475
:10579C00A06DFFF78FFBDDE770B50C46B1F90E106D
:1057AC00154600291E4696B00CDAA389002113F089
:1057BC00800F14BF40234FF48063002031602B60B6
:1057CC0016B070BD6A4600F049F80028EDDB01996F
:1057DC0001F47041A1F50053594259414FF48063D3
:1057EC00EBE78B89F7B59D0706460C4607D504F108
:1057FC004703236023610123636103B0F0BD6A4654
:10580C0001ABFFF7C9FF009F054639463046FFF74D
:10581C00BDFB48B9B4F90C309A05EED423F0030360
:10582C0043F00203A381E2E7A389C4E9040743F030
:10583C008003A381019B20605BB13046B4F90E104C
:10584C0000F01EF828B1A38923F0030343F00103F1
:10585C00A381A3891D43A581CFE7000038B50023A0
:10586C00064D0446084611462B60FFF753F8431CBF
:10587C0002D12B6803B1236038BD00BF6802002041
:10588C0038B50023054D044608462B60FFF751F848
:10589C00431C02D12B6803B1236038BD6802002081
:1058AC0038B50023054D044608462B60FEF7B8FFBB
:1058BC00431C02D12B6803B1236038BD6802002061
:1058CC00034610B5C9B202449342184601D10020D8
:1058DC0003E0047801338C42F6D110BDF8B500BF5B
:1058EC00F8BC08BC9E467047F8B500BFF8BC08BCB5
:0458FC009E4670470D
:10590000493243205472616E736D697373696F6EAF
:10591000204572726F720D00446174612073656E70
:10592000743A2030782530325820746F2045455025
:10593000524F4D206174206164647265737320302E
:1059400078253032580D0A004D61737465722061FC
:10595000646472657373207772697465206F706513
:10596000726174696F6E206661696C65640D000018
:105970004164647265737320307825303258207327
:10598000656E7420746F20454550524F4D20666FF0
:105990007220726561640D0A000000004D6173742D
:1059A000657220726561642064617461206F706546
:1059B000726174696F6E206661696C65640D0000C8
:1059C0004461746120726561643A20307825303218
:1059D000582066726F6D20454550524F4D206174BE
:1059E0002061646472657373203078253032580DFD
:1059F0000A000000493243204572726F723A20302B
:105A000078256C580D0A000000000000000000001E
:105A10000102030406070809000000000102030454
:105A200002030405060708090A0B0C0D0E0F1010DF
:105A30000102232D302B2000686C4C006566674501
:105A400046470030313233343536373839414243F6
:105A500044454600303132333435363738396162A7
:085A60006364656600000000AC
:045A68003101000800
:045A6C000D01000820
:105A700000127A0010000000010000000000000089
:105A8000030000002C0100201C000020000000008A
:105A90002C01002094010020FC01002000000000E7
:105AA00000000000000000000000000000000000F6
:105AB00000000000000000000000000000000000E6
:105AC00000000000000000000000000000000000D6
